{
  "_format": "hh-sol-artifact-1",
  "contractName": "CrvStrategyKeep3rJob",
  "sourceName": "contracts/jobs/CrvStrategyKeep3rJob.sol",
  "abi": [
    {
      "inputs": [
        {
          "internalType": "address",
          "name": "_mechanicsRegistry",
          "type": "address"
        },
        {
          "internalType": "address",
          "name": "_keep3r",
          "type": "address"
        },
        {
          "internalType": "address",
          "name": "_bond",
          "type": "address"
        },
        {
          "internalType": "uint256",
          "name": "_minBond",
          "type": "uint256"
        },
        {
          "internalType": "uint256",
          "name": "_earned",
          "type": "uint256"
        },
        {
          "internalType": "uint256",
          "name": "_age",
          "type": "uint256"
        },
        {
          "internalType": "bool",
          "name": "_onlyEOA",
          "type": "bool"
        },
        {
          "internalType": "uint256",
          "name": "_maxHarvestPeriod",
          "type": "uint256"
        },
        {
          "internalType": "uint256",
          "name": "_harvestCooldown",
          "type": "uint256"
        }
      ],
      "stateMutability": "nonpayable",
      "type": "constructor"
    },
    {
      "anonymous": false,
      "inputs": [
        {
          "indexed": false,
          "internalType": "address",
          "name": "_to",
          "type": "address"
        },
        {
          "indexed": false,
          "internalType": "address",
          "name": "token",
          "type": "address"
        },
        {
          "indexed": false,
          "internalType": "uint256",
          "name": "amount",
          "type": "uint256"
        }
      ],
      "name": "DustSent",
      "type": "event"
    },
    {
      "anonymous": false,
      "inputs": [
        {
          "indexed": false,
          "internalType": "address",
          "name": "_strategy",
          "type": "address"
        }
      ],
      "name": "ForceWorked",
      "type": "event"
    },
    {
      "anonymous": false,
      "inputs": [],
      "name": "GovernorAccepted",
      "type": "event"
    },
    {
      "anonymous": false,
      "inputs": [
        {
          "indexed": false,
          "internalType": "address",
          "name": "_bond",
          "type": "address"
        },
        {
          "indexed": false,
          "internalType": "uint256",
          "name": "_minBond",
          "type": "uint256"
        },
        {
          "indexed": false,
          "internalType": "uint256",
          "name": "_earned",
          "type": "uint256"
        },
        {
          "indexed": false,
          "internalType": "uint256",
          "name": "_age",
          "type": "uint256"
        },
        {
          "indexed": false,
          "internalType": "bool",
          "name": "_onlyEOA",
          "type": "bool"
        }
      ],
      "name": "Keep3rRequirementsSet",
      "type": "event"
    },
    {
      "anonymous": false,
      "inputs": [
        {
          "indexed": false,
          "internalType": "address",
          "name": "_keep3r",
          "type": "address"
        }
      ],
      "name": "Keep3rSet",
      "type": "event"
    },
    {
      "anonymous": false,
      "inputs": [
        {
          "indexed": false,
          "internalType": "bool",
          "name": "_paused",
          "type": "bool"
        }
      ],
      "name": "Paused",
      "type": "event"
    },
    {
      "anonymous": false,
      "inputs": [
        {
          "indexed": false,
          "internalType": "address",
          "name": "pendingGovernor",
          "type": "address"
        }
      ],
      "name": "PendingGovernorSet",
      "type": "event"
    },
    {
      "anonymous": false,
      "inputs": [
        {
          "indexed": false,
          "internalType": "uint256",
          "name": "_rewardMultiplier",
          "type": "uint256"
        }
      ],
      "name": "SetRewardMultiplier",
      "type": "event"
    },
    {
      "anonymous": false,
      "inputs": [
        {
          "indexed": false,
          "internalType": "address",
          "name": "_strategy",
          "type": "address"
        },
        {
          "indexed": false,
          "internalType": "uint256",
          "name": "_requiredHarvest",
          "type": "uint256"
        },
        {
          "indexed": false,
          "internalType": "uint256",
          "name": "_requiredEarn",
          "type": "uint256"
        }
      ],
      "name": "StrategyAdded",
      "type": "event"
    },
    {
      "anonymous": false,
      "inputs": [
        {
          "indexed": false,
          "internalType": "address",
          "name": "_strategy",
          "type": "address"
        },
        {
          "indexed": false,
          "internalType": "uint256",
          "name": "_requiredHarvest",
          "type": "uint256"
        },
        {
          "indexed": false,
          "internalType": "uint256",
          "name": "_requiredEarn",
          "type": "uint256"
        }
      ],
      "name": "StrategyModified",
      "type": "event"
    },
    {
      "anonymous": false,
      "inputs": [
        {
          "indexed": false,
          "internalType": "address",
          "name": "_strategy",
          "type": "address"
        }
      ],
      "name": "StrategyRemoved",
      "type": "event"
    },
    {
      "anonymous": false,
      "inputs": [
        {
          "indexed": false,
          "internalType": "address",
          "name": "_strategy",
          "type": "address"
        },
        {
          "indexed": false,
          "internalType": "address",
          "name": "_keeper",
          "type": "address"
        },
        {
          "indexed": false,
          "internalType": "uint256",
          "name": "_credits",
          "type": "uint256"
        },
        {
          "indexed": false,
          "internalType": "bool",
          "name": "_workForTokens",
          "type": "bool"
        }
      ],
      "name": "Worked",
      "type": "event"
    },
    {
      "inputs": [],
      "name": "ETH_ADDRESS",
      "outputs": [
        {
          "internalType": "address",
          "name": "",
          "type": "address"
        }
      ],
      "stateMutability": "view",
      "type": "function"
    },
    {
      "inputs": [],
      "name": "MAX_REWARD_MULTIPLIER",
      "outputs": [
        {
          "internalType": "uint256",
          "name": "",
          "type": "uint256"
        }
      ],
      "stateMutability": "view",
      "type": "function"
    },
    {
      "inputs": [],
      "name": "PRECISION",
      "outputs": [
        {
          "internalType": "uint256",
          "name": "",
          "type": "uint256"
        }
      ],
      "stateMutability": "view",
      "type": "function"
    },
    {
      "inputs": [],
      "name": "acceptGovernor",
      "outputs": [],
      "stateMutability": "nonpayable",
      "type": "function"
    },
    {
      "inputs": [
        {
          "internalType": "address[]",
          "name": "_strategies",
          "type": "address[]"
        },
        {
          "internalType": "uint256[]",
          "name": "_requiredHarvests",
          "type": "uint256[]"
        },
        {
          "internalType": "uint256[]",
          "name": "_requiredEarns",
          "type": "uint256[]"
        }
      ],
      "name": "addStrategies",
      "outputs": [],
      "stateMutability": "nonpayable",
      "type": "function"
    },
    {
      "inputs": [
        {
          "internalType": "address",
          "name": "_strategy",
          "type": "address"
        },
        {
          "internalType": "uint256",
          "name": "_requiredHarvest",
          "type": "uint256"
        },
        {
          "internalType": "uint256",
          "name": "_requiredEarn",
          "type": "uint256"
        }
      ],
      "name": "addStrategy",
      "outputs": [],
      "stateMutability": "nonpayable",
      "type": "function"
    },
    {
      "inputs": [],
      "name": "age",
      "outputs": [
        {
          "internalType": "uint256",
          "name": "",
          "type": "uint256"
        }
      ],
      "stateMutability": "view",
      "type": "function"
    },
    {
      "inputs": [],
      "name": "bond",
      "outputs": [
        {
          "internalType": "address",
          "name": "",
          "type": "address"
        }
      ],
      "stateMutability": "view",
      "type": "function"
    },
    {
      "inputs": [
        {
          "internalType": "address",
          "name": "_strategy",
          "type": "address"
        }
      ],
      "name": "calculateHarvest",
      "outputs": [
        {
          "internalType": "uint256",
          "name": "_amount",
          "type": "uint256"
        }
      ],
      "stateMutability": "nonpayable",
      "type": "function"
    },
    {
      "inputs": [],
      "name": "earned",
      "outputs": [
        {
          "internalType": "uint256",
          "name": "",
          "type": "uint256"
        }
      ],
      "stateMutability": "view",
      "type": "function"
    },
    {
      "inputs": [
        {
          "internalType": "address",
          "name": "_strategy",
          "type": "address"
        }
      ],
      "name": "forceWork",
      "outputs": [],
      "stateMutability": "nonpayable",
      "type": "function"
    },
    {
      "inputs": [],
      "name": "governor",
      "outputs": [
        {
          "internalType": "address",
          "name": "",
          "type": "address"
        }
      ],
      "stateMutability": "view",
      "type": "function"
    },
    {
      "inputs": [],
      "name": "harvestCooldown",
      "outputs": [
        {
          "internalType": "uint256",
          "name": "",
          "type": "uint256"
        }
      ],
      "stateMutability": "view",
      "type": "function"
    },
    {
      "inputs": [
        {
          "internalType": "address",
          "name": "_account",
          "type": "address"
        }
      ],
      "name": "isGovernor",
      "outputs": [
        {
          "internalType": "bool",
          "name": "_isGovernor",
          "type": "bool"
        }
      ],
      "stateMutability": "view",
      "type": "function"
    },
    {
      "inputs": [
        {
          "internalType": "address",
          "name": "_mechanic",
          "type": "address"
        }
      ],
      "name": "isMechanic",
      "outputs": [
        {
          "internalType": "bool",
          "name": "_isMechanic",
          "type": "bool"
        }
      ],
      "stateMutability": "view",
      "type": "function"
    },
    {
      "inputs": [],
      "name": "keep3r",
      "outputs": [
        {
          "internalType": "address",
          "name": "_keep3r",
          "type": "address"
        }
      ],
      "stateMutability": "view",
      "type": "function"
    },
    {
      "inputs": [],
      "name": "lastHarvest",
      "outputs": [
        {
          "internalType": "uint256",
          "name": "",
          "type": "uint256"
        }
      ],
      "stateMutability": "view",
      "type": "function"
    },
    {
      "inputs": [
        {
          "internalType": "address",
          "name": "",
          "type": "address"
        }
      ],
      "name": "lastWorkAt",
      "outputs": [
        {
          "internalType": "uint256",
          "name": "",
          "type": "uint256"
        }
      ],
      "stateMutability": "view",
      "type": "function"
    },
    {
      "inputs": [],
      "name": "maxHarvestPeriod",
      "outputs": [
        {
          "internalType": "uint256",
          "name": "",
          "type": "uint256"
        }
      ],
      "stateMutability": "view",
      "type": "function"
    },
    {
      "inputs": [],
      "name": "mechanicsRegistry",
      "outputs": [
        {
          "internalType": "address",
          "name": "_mechanicRegistry",
          "type": "address"
        }
      ],
      "stateMutability": "view",
      "type": "function"
    },
    {
      "inputs": [],
      "name": "minBond",
      "outputs": [
        {
          "internalType": "uint256",
          "name": "",
          "type": "uint256"
        }
      ],
      "stateMutability": "view",
      "type": "function"
    },
    {
      "inputs": [],
      "name": "onlyEOA",
      "outputs": [
        {
          "internalType": "bool",
          "name": "",
          "type": "bool"
        }
      ],
      "stateMutability": "view",
      "type": "function"
    },
    {
      "inputs": [
        {
          "internalType": "bool",
          "name": "_paused",
          "type": "bool"
        }
      ],
      "name": "pause",
      "outputs": [],
      "stateMutability": "nonpayable",
      "type": "function"
    },
    {
      "inputs": [],
      "name": "paused",
      "outputs": [
        {
          "internalType": "bool",
          "name": "",
          "type": "bool"
        }
      ],
      "stateMutability": "view",
      "type": "function"
    },
    {
      "inputs": [],
      "name": "pendingGovernor",
      "outputs": [
        {
          "internalType": "address",
          "name": "",
          "type": "address"
        }
      ],
      "stateMutability": "view",
      "type": "function"
    },
    {
      "inputs": [
        {
          "internalType": "address",
          "name": "_strategy",
          "type": "address"
        }
      ],
      "name": "removeStrategy",
      "outputs": [],
      "stateMutability": "nonpayable",
      "type": "function"
    },
    {
      "inputs": [
        {
          "internalType": "address",
          "name": "",
          "type": "address"
        }
      ],
      "name": "requiredEarn",
      "outputs": [
        {
          "internalType": "uint256",
          "name": "",
          "type": "uint256"
        }
      ],
      "stateMutability": "view",
      "type": "function"
    },
    {
      "inputs": [
        {
          "internalType": "address",
          "name": "",
          "type": "address"
        }
      ],
      "name": "requiredHarvest",
      "outputs": [
        {
          "internalType": "uint256",
          "name": "",
          "type": "uint256"
        }
      ],
      "stateMutability": "view",
      "type": "function"
    },
    {
      "inputs": [],
      "name": "rewardMultiplier",
      "outputs": [
        {
          "internalType": "uint256",
          "name": "",
          "type": "uint256"
        }
      ],
      "stateMutability": "view",
      "type": "function"
    },
    {
      "inputs": [
        {
          "internalType": "address",
          "name": "_to",
          "type": "address"
        },
        {
          "internalType": "address",
          "name": "_token",
          "type": "address"
        },
        {
          "internalType": "uint256",
          "name": "_amount",
          "type": "uint256"
        }
      ],
      "name": "sendDust",
      "outputs": [],
      "stateMutability": "nonpayable",
      "type": "function"
    },
    {
      "inputs": [
        {
          "internalType": "uint256",
          "name": "_harvestCooldown",
          "type": "uint256"
        }
      ],
      "name": "setHarvestCooldown",
      "outputs": [],
      "stateMutability": "nonpayable",
      "type": "function"
    },
    {
      "inputs": [
        {
          "internalType": "address",
          "name": "_keep3r",
          "type": "address"
        }
      ],
      "name": "setKeep3r",
      "outputs": [],
      "stateMutability": "nonpayable",
      "type": "function"
    },
    {
      "inputs": [
        {
          "internalType": "address",
          "name": "_bond",
          "type": "address"
        },
        {
          "internalType": "uint256",
          "name": "_minBond",
          "type": "uint256"
        },
        {
          "internalType": "uint256",
          "name": "_earned",
          "type": "uint256"
        },
        {
          "internalType": "uint256",
          "name": "_age",
          "type": "uint256"
        },
        {
          "internalType": "bool",
          "name": "_onlyEOA",
          "type": "bool"
        }
      ],
      "name": "setKeep3rRequirements",
      "outputs": [],
      "stateMutability": "nonpayable",
      "type": "function"
    },
    {
      "inputs": [
        {
          "internalType": "uint256",
          "name": "_maxHarvestPeriod",
          "type": "uint256"
        }
      ],
      "name": "setMaxHarvestPeriod",
      "outputs": [],
      "stateMutability": "nonpayable",
      "type": "function"
    },
    {
      "inputs": [
        {
          "internalType": "address",
          "name": "_mechanicsRegistry",
          "type": "address"
        }
      ],
      "name": "setMechanicsRegistry",
      "outputs": [],
      "stateMutability": "nonpayable",
      "type": "function"
    },
    {
      "inputs": [
        {
          "internalType": "address",
          "name": "_pendingGovernor",
          "type": "address"
        }
      ],
      "name": "setPendingGovernor",
      "outputs": [],
      "stateMutability": "nonpayable",
      "type": "function"
    },
    {
      "inputs": [
        {
          "internalType": "uint256",
          "name": "_rewardMultiplier",
          "type": "uint256"
        }
      ],
      "name": "setRewardMultiplier",
      "outputs": [],
      "stateMutability": "nonpayable",
      "type": "function"
    },
    {
      "inputs": [],
      "name": "strategies",
      "outputs": [
        {
          "internalType": "address[]",
          "name": "_strategies",
          "type": "address[]"
        }
      ],
      "stateMutability": "view",
      "type": "function"
    },
    {
      "inputs": [
        {
          "internalType": "address[]",
          "name": "_strategies",
          "type": "address[]"
        },
        {
          "internalType": "uint256[]",
          "name": "_requiredHarvests",
          "type": "uint256[]"
        },
        {
          "internalType": "uint256[]",
          "name": "_requiredEarns",
          "type": "uint256[]"
        }
      ],
      "name": "updateStrategies",
      "outputs": [],
      "stateMutability": "nonpayable",
      "type": "function"
    },
    {
      "inputs": [
        {
          "internalType": "address",
          "name": "_strategy",
          "type": "address"
        },
        {
          "internalType": "uint256",
          "name": "_requiredHarvest",
          "type": "uint256"
        },
        {
          "internalType": "uint256",
          "name": "_requiredEarn",
          "type": "uint256"
        }
      ],
      "name": "updateStrategy",
      "outputs": [],
      "stateMutability": "nonpayable",
      "type": "function"
    },
    {
      "inputs": [
        {
          "internalType": "address",
          "name": "_strategy",
          "type": "address"
        }
      ],
      "name": "work",
      "outputs": [
        {
          "internalType": "uint256",
          "name": "_credits",
          "type": "uint256"
        }
      ],
      "stateMutability": "nonpayable",
      "type": "function"
    },
    {
      "inputs": [
        {
          "internalType": "address",
          "name": "_strategy",
          "type": "address"
        }
      ],
      "name": "workForBond",
      "outputs": [
        {
          "internalType": "uint256",
          "name": "_credits",
          "type": "uint256"
        }
      ],
      "stateMutability": "nonpayable",
      "type": "function"
    },
    {
      "inputs": [
        {
          "internalType": "address",
          "name": "_strategy",
          "type": "address"
        }
      ],
      "name": "workForTokens",
      "outputs": [
        {
          "internalType": "uint256",
          "name": "_credits",
          "type": "uint256"
        }
      ],
      "stateMutability": "nonpayable",
      "type": "function"
    },
    {
      "inputs": [
        {
          "internalType": "address",
          "name": "_strategy",
          "type": "address"
        }
      ],
      "name": "workable",
      "outputs": [
        {
          "internalType": "bool",
          "name": "",
          "type": "bool"
        }
      ],
      "stateMutability": "nonpayable",
      "type": "function"
    }
  ],
  "bytecode": "0x60806040526103e8600102600b553480156200001a57600080fd5b5060405162004f4938038062004f4983398181016040526101208110156200004157600080fd5b8101908080519060200190929190805190602001909291908051906020019092919080519060200190929190805190602001909291908051906020019092919080519060200190929190805190602001909291908051906020019092919050505087898033600073ffffffffffffffffffffffffffffffffffffffff168173ffffffffffffffffffffffffffffffffffffffff1614156200012e576040517f08c379a000000000000000000000000000000000000000000000000000000000815260040180806020018281038252602e81526020018062004edc602e913960400191505060405180910390fd5b806000806101000a81548173ffffffffffffffffffffffffffffffffffffffff021916908373ffffffffffffffffffffffffffffffffffffffff160217905550506200018081620001da60201b60201c565b505062000193816200021e60201b60201c565b50620001a98787878787620002af60201b60201c565b620001ba826200039460201b60201c565b620001cb81620003f960201b60201c565b50505050505050505062000403565b80600460016101000a81548173ffffffffffffffffffffffffffffffffffffffff021916908373ffffffffffffffffffffffffffffffffffffffff16021790555050565b80600560006101000a81548173ffffffffffffffffffffffffffffffffffffffff021916908373ffffffffffffffffffffffffffffffffffffffff1602179055507f0fec338132ef1fa68cd11242357e5e5e5af67dfd0c957b53ef411bca535817ef81604051808273ffffffffffffffffffffffffffffffffffffffff16815260200191505060405180910390a150565b84600660006101000a81548173ffffffffffffffffffffffffffffffffffffffff021916908373ffffffffffffffffffffffffffffffffffffffff16021790555083600781905550826008819055508160098190555080600a60006101000a81548160ff0219169083151502179055507ec65cfa7a4df705cbfccbeeabefaa0a7015a83bc2b7380c2aba930fa3d66d458585858585604051808673ffffffffffffffffffffffffffffffffffffffff16815260200185815260200184815260200183815260200182151581526020019550505050505060405180910390a15050505050565b60008111620003ef576040517f08c379a000000000000000000000000000000000000000000000000000000000815260040180806020018281038252603f81526020018062004f0a603f913960400191505060405180910390fd5b80600f8190555050565b8060118190555050565b614ac980620004136000396000f3fe608060405234801561001057600080fd5b50600436106102745760003560e01c8063831518b711610151578063e3056a34116100c3578063ef47da6d11610087578063ef47da6d14610d48578063f1a392da14610d8c578063f235757f14610daa578063fa34d61114610dee578063fb2a410a14610e46578063fd8d68aa14610e6657610274565b8063e3056a3414610b1f578063e43581b814610b53578063e58bb63914610bad578063e80d28c314610bb7578063e89352de14610cda57610274565b8063aaf5eb6811610115578063aaf5eb68146109ba578063cbd31882146109d8578063d643ad3214610a30578063d6f1926214610a5e578063d9f9027f14610a7c578063dd7ba42014610adb57610274565b8063831518b71461088857806386371819146108a65780639f471303146108d4578063a734f06e1461092e578063a90924111461096257610274565b80633afbd477116101ea5780636038f10c116101ae5780636038f10c14610732578063634c7bb51461078a578063646f6eb4146107be57806364c9ec6f146107dc57806365834acc146108105780636f2c590a1461086a57610274565b80633afbd477146104fb578063452176e1146105535780634cc18e57146105ab5780635473e2c0146105ef5780635c975abb1461071257610274565b8063175188e81161023c578063175188e814610397578063234d200f146103db578063262a9dff146103f95780632db8c129146104175780632dd6d03a1461048557806336df7ea5146104a357610274565b806302329a29146102795780630bd075a1146102a95780630c340a24146102d7578063102628031461030b5780631078f38814610363575b600080fd5b6102a76004803603602081101561028f57600080fd5b81019080803515159060200190929190505050610ebe565b005b6102d5600480360360208110156102bf57600080fd5b8101908080359060200190929190505050610f45565b005b6102df610ff6565b604051808273ffffffffffffffffffffffffffffffffffffffff16815260200191505060405180910390f35b61034d6004803603602081101561032157600080fd5b81019080803573ffffffffffffffffffffffffffffffffffffffff16906020019092919050505061101a565b6040518082815260200191505060405180910390f35b61036b611032565b604051808273ffffffffffffffffffffffffffffffffffffffff16815260200191505060405180910390f35b6103d9600480360360208110156103ad57600080fd5b81019080803573ffffffffffffffffffffffffffffffffffffffff16906020019092919050505061105c565b005b6103e361120c565b6040518082815260200191505060405180910390f35b610401611212565b6040518082815260200191505060405180910390f35b6104836004803603606081101561042d57600080fd5b81019080803573ffffffffffffffffffffffffffffffffffffffff169060200190929190803573ffffffffffffffffffffffffffffffffffffffff16906020019092919080359060200190929190505050611218565b005b61048d6112a3565b6040518082815260200191505060405180910390f35b6104e5600480360360208110156104b957600080fd5b81019080803573ffffffffffffffffffffffffffffffffffffffff1690602001909291905050506112a9565b6040518082815260200191505060405180910390f35b61053d6004803603602081101561051157600080fd5b81019080803573ffffffffffffffffffffffffffffffffffffffff1690602001909291905050506112bb565b6040518082815260200191505060405180910390f35b6105956004803603602081101561056957600080fd5b81019080803573ffffffffffffffffffffffffffffffffffffffff169060200190929190505050611364565b6040518082815260200191505060405180910390f35b6105ed600480360360208110156105c157600080fd5b81019080803573ffffffffffffffffffffffffffffffffffffffff1690602001909291905050506115b4565b005b6107106004803603606081101561060557600080fd5b810190808035906020019064010000000081111561062257600080fd5b82018360208201111561063457600080fd5b8035906020019184602083028401116401000000008311171561065657600080fd5b90919293919293908035906020019064010000000081111561067757600080fd5b82018360208201111561068957600080fd5b803590602001918460208302840111640100000000831117156106ab57600080fd5b9091929391929390803590602001906401000000008111156106cc57600080fd5b8201836020820111156106de57600080fd5b8035906020019184602083028401116401000000008311171561070057600080fd5b909192939192939050505061163b565b005b61071a611793565b60405180821515815260200191505060405180910390f35b6107746004803603602081101561074857600080fd5b81019080803573ffffffffffffffffffffffffffffffffffffffff1690602001909291905050506117a6565b6040518082815260200191505060405180910390f35b61079261184f565b604051808273ffffffffffffffffffffffffffffffffffffffff16815260200191505060405180910390f35b6107c6611879565b6040518082815260200191505060405180910390f35b6107e4611882565b604051808273ffffffffffffffffffffffffffffffffffffffff16815260200191505060405180910390f35b6108526004803603602081101561082657600080fd5b81019080803573ffffffffffffffffffffffffffffffffffffffff1690602001909291905050506118a8565b60405180821515815260200191505060405180910390f35b610872611975565b6040518082815260200191505060405180910390f35b61089061197b565b6040518082815260200191505060405180910390f35b6108d2600480360360208110156108bc57600080fd5b8101908080359060200190929190505050611981565b005b610916600480360360208110156108ea57600080fd5b81019080803573ffffffffffffffffffffffffffffffffffffffff1690602001909291905050506119fb565b60405180821515815260200191505060405180910390f35b610936611a90565b604051808273ffffffffffffffffffffffffffffffffffffffff16815260200191505060405180910390f35b6109a46004803603602081101561097857600080fd5b81019080803573ffffffffffffffffffffffffffffffffffffffff169060200190929190505050611aa8565b6040518082815260200191505060405180910390f35b6109c2611ac0565b6040518082815260200191505060405180910390f35b610a1a600480360360208110156109ee57600080fd5b81019080803573ffffffffffffffffffffffffffffffffffffffff169060200190929190505050611ac6565b6040518082815260200191505060405180910390f35b610a5c60048036036020811015610a4657600080fd5b8101908080359060200190929190505050611ade565b005b610a66611b58565b6040518082815260200191505060405180910390f35b610a84611b5e565b6040518080602001828103825283818151815260200191508051906020019060200280838360005b83811015610ac7578082015181840152602081019050610aac565b505050509050019250505060405180910390f35b610b1d60048036036020811015610af157600080fd5b81019080803573ffffffffffffffffffffffffffffffffffffffff169060200190929190505050611c31565b005b610b27611cf8565b604051808273ffffffffffffffffffffffffffffffffffffffff16815260200191505060405180910390f35b610b9560048036036020811015610b6957600080fd5b81019080803573ffffffffffffffffffffffffffffffffffffffff169060200190929190505050611d1e565b60405180821515815260200191505060405180910390f35b610bb5611d77565b005b610cd860048036036060811015610bcd57600080fd5b8101908080359060200190640100000000811115610bea57600080fd5b820183602082011115610bfc57600080fd5b80359060200191846020830284011164010000000083111715610c1e57600080fd5b909192939192939080359060200190640100000000811115610c3f57600080fd5b820183602082011115610c5157600080fd5b80359060200191846020830284011164010000000083111715610c7357600080fd5b909192939192939080359060200190640100000000811115610c9457600080fd5b820183602082011115610ca657600080fd5b80359060200191846020830284011164010000000083111715610cc857600080fd5b9091929391929390505050611e44565b005b610d46600480360360a0811015610cf057600080fd5b81019080803573ffffffffffffffffffffffffffffffffffffffff169060200190929190803590602001909291908035906020019092919080359060200190929190803515159060200190929190505050611f9c565b005b610d8a60048036036020811015610d5e57600080fd5b81019080803573ffffffffffffffffffffffffffffffffffffffff16906020019092919050505061202b565b005b610d946120b2565b6040518082815260200191505060405180910390f35b610dec60048036036020811015610dc057600080fd5b81019080803573ffffffffffffffffffffffffffffffffffffffff1690602001909291905050506120b8565b005b610e4460048036036060811015610e0457600080fd5b81019080803573ffffffffffffffffffffffffffffffffffffffff169060200190929190803590602001909291908035906020019092919050505061213f565b005b610e4e6121bd565b60405180821515815260200191505060405180910390f35b610ebc60048036036060811015610e7c57600080fd5b81019080803573ffffffffffffffffffffffffffffffffffffffff16906020019092919080359060200190929190803590602001909291905050506121d0565b005b610ec733611d1e565b610f39576040517f08c379a00000000000000000000000000000000000000000000000000000000081526004018080602001828103825260188152602001807f676f7665726e61626c652f6f6e6c792d676f7665726e6f72000000000000000081525060200191505060405180910390fd5b610f428161224e565b50565b610f4e33611d1e565b80610f5e5750610f5d336118a8565b5b610fb3576040517f08c379a00000000000000000000000000000000000000000000000000000000081526004018080602001828103825260348152602001806147246034913960400191505060405180910390fd5b610fbc8161232d565b7f0c002b45a2a56ac47bbd9d9075735e7591415cfc0c3f50d947016a538e803817816040518082815260200191505060405180910390a150565b60008054906101000a900473ffffffffffffffffffffffffffffffffffffffff1681565b600e6020528060005260406000206000915090505481565b6000600460019054906101000a900473ffffffffffffffffffffffffffffffffffffffff16905090565b61106533611d1e565b806110755750611074336118a8565b5b6110ca576040517f08c379a00000000000000000000000000000000000000000000000000000000081526004018080602001828103825260348152602001806147246034913960400191505060405180910390fd5b6000600c60008373ffffffffffffffffffffffffffffffffffffffff1673ffffffffffffffffffffffffffffffffffffffff1681526020019081526020016000205411611162576040517f08c379a00000000000000000000000000000000000000000000000000000000081526004018080602001828103825260388152602001806145c16038913960400191505060405180910390fd5b6000600c60008373ffffffffffffffffffffffffffffffffffffffff1673ffffffffffffffffffffffffffffffffffffffff168152602001908152602001600020819055506111bb81601261239590919063ffffffff16565b507f09a1db4b80c32706328728508c941a6b954f31eb5affd32f236c1fd405f8fea481604051808273ffffffffffffffffffffffffffffffffffffffff16815260200191505060405180910390a150565b60115481565b60095481565b61122133611d1e565b611293576040517f08c379a00000000000000000000000000000000000000000000000000000000081526004018080602001828103825260188152602001807f676f7665726e61626c652f6f6e6c792d676f7665726e6f72000000000000000081525060200191505060405180910390fd5b61129e8383836123c5565b505050565b600f5481565b60006112b4826112bb565b9050919050565b6000600460009054906101000a900460ff1615611340576040517f08c379a00000000000000000000000000000000000000000000000000000000081526004018080602001828103825260068152602001807f706175736564000000000000000000000000000000000000000000000000000081525060200191505060405180910390fd5b6113486125ed565b611353826000612ae0565b905061135f3382612ebc565b919050565b600080600c60008473ffffffffffffffffffffffffffffffffffffffff1673ffffffffffffffffffffffffffffffffffffffff16815260200190815260200160002054116113fd576040517f08c379a000000000000000000000000000000000000000000000000000000000815260040180806020018281038252603a8152602001806147e1603a913960400191505060405180910390fd5b60008273ffffffffffffffffffffffffffffffffffffffff1663a6f19c846040518163ffffffff1660e01b815260040160206040518083038186803b15801561144557600080fd5b505afa158015611459573d6000803e3d6000fd5b505050506040513d602081101561146f57600080fd5b8101908080519060200190929190505050905060008373ffffffffffffffffffffffffffffffffffffffff166346c96aac6040518163ffffffff1660e01b815260040160206040518083038186803b1580156114ca57600080fd5b505afa1580156114de573d6000803e3d6000fd5b505050506040513d60208110156114f457600080fd5b810190808051906020019092919050505090508173ffffffffffffffffffffffffffffffffffffffff166333134583826040518263ffffffff1660e01b8152600401808273ffffffffffffffffffffffffffffffffffffffff168152602001915050602060405180830381600087803b15801561157057600080fd5b505af1158015611584573d6000803e3d6000fd5b505050506040513d602081101561159a57600080fd5b810190808051906020019092919050505092505050919050565b6115bd33611d1e565b61162f576040517f08c379a00000000000000000000000000000000000000000000000000000000081526004018080602001828103825260188152602001807f676f7665726e61626c652f6f6e6c792d676f7665726e6f72000000000000000081525060200191505060405180910390fd5b61163881612f6b565b50565b61164433611d1e565b806116545750611653336118a8565b5b6116a9576040517f08c379a00000000000000000000000000000000000000000000000000000000081526004018080602001828103825260348152602001806147246034913960400191505060405180910390fd5b83839050868690501480156116c357508181905086869050145b611718576040517f08c379a000000000000000000000000000000000000000000000000000000000815260040180806020018281038252605c81526020018061481b605c913960600191505060405180910390fd5b60005b8686905081101561178a5761177d87878381811061173557fe5b9050602002013573ffffffffffffffffffffffffffffffffffffffff1686868481811061175e57fe5b9050602002013585858581811061177157fe5b90506020020135612ffc565b808060010191505061171b565b50505050505050565b600460009054906101000a900460ff1681565b6000600460009054906101000a900460ff161561182b576040517f08c379a00000000000000000000000000000000000000000000000000000000081526004018080602001828103825260068152602001807f706175736564000000000000000000000000000000000000000000000000000081525060200191505060405180910390fd5b6118336125ed565b61183e826001612ae0565b905061184a3382613163565b919050565b6000600560009054906101000a900473ffffffffffffffffffffffffffffffffffffffff16905090565b6103e860010281565b600660009054906101000a900473ffffffffffffffffffffffffffffffffffffffff1681565b6000600460019054906101000a900473ffffffffffffffffffffffffffffffffffffffff1673ffffffffffffffffffffffffffffffffffffffff166365834acc836040518263ffffffff1660e01b8152600401808273ffffffffffffffffffffffffffffffffffffffff16815260200191505060206040518083038186803b15801561193357600080fd5b505afa158015611947573d6000803e3d6000fd5b505050506040513d602081101561195d57600080fd5b81019080805190602001909291905050509050919050565b600b5481565b60075481565b61198a33611d1e565b8061199a5750611999336118a8565b5b6119ef576040517f08c379a00000000000000000000000000000000000000000000000000000000081526004018080602001828103825260348152602001806147246034913960400191505060405180910390fd5b6119f881613252565b50565b6000600460009054906101000a900460ff1615611a80576040517f08c379a00000000000000000000000000000000000000000000000000000000081526004018080602001828103825260068152602001807f706175736564000000000000000000000000000000000000000000000000000081525060200191505060405180910390fd5b611a89826132b5565b9050919050565b73eeeeeeeeeeeeeeeeeeeeeeeeeeeeeeeeeeeeeeee81565b600c6020528060005260406000206000915090505481565b6103e881565b600d6020528060005260406000206000915090505481565b611ae733611d1e565b80611af75750611af6336118a8565b5b611b4c576040517f08c379a00000000000000000000000000000000000000000000000000000000081526004018080602001828103825260348152602001806147246034913960400191505060405180910390fd5b611b558161342c565b50565b60085481565b6060611b6a6012613436565b67ffffffffffffffff81118015611b8057600080fd5b50604051908082528060200260200182016040528015611baf5781602001602082028036833780820191505090505b50905060005b611bbf6012613436565b811015611c2d57611bda81601261344b90919063ffffffff16565b828281518110611be657fe5b602002602001019073ffffffffffffffffffffffffffffffffffffffff16908173ffffffffffffffffffffffffffffffffffffffff16815250508080600101915050611bb5565b5090565b611c3a33611d1e565b80611c4a5750611c49336118a8565b5b611c9f576040517f08c379a00000000000000000000000000000000000000000000000000000000081526004018080602001828103825260348152602001806147246034913960400191505060405180910390fd5b611ca881613465565b7fee8d688761ac1d0fda49e2ac999f0e46b3beaf16857a8e8905aeab2987dc8d3881604051808273ffffffffffffffffffffffffffffffffffffffff16815260200191505060405180910390a150565b600160009054906101000a900473ffffffffffffffffffffffffffffffffffffffff1681565b60008060009054906101000a900473ffffffffffffffffffffffffffffffffffffffff1673ffffffffffffffffffffffffffffffffffffffff168273ffffffffffffffffffffffffffffffffffffffff16149050919050565b600160009054906101000a900473ffffffffffffffffffffffffffffffffffffffff1673ffffffffffffffffffffffffffffffffffffffff163373ffffffffffffffffffffffffffffffffffffffff1614611e3a576040517f08c379a00000000000000000000000000000000000000000000000000000000081526004018080602001828103825260208152602001807f676f7665726e61626c652f6f6e6c792d70656e64696e672d676f7665726e6f7281525060200191505060405180910390fd5b611e42613513565b565b611e4d33611d1e565b80611e5d5750611e5c336118a8565b5b611eb2576040517f08c379a00000000000000000000000000000000000000000000000000000000081526004018080602001828103825260348152602001806147246034913960400191505060405180910390fd5b8383905086869050148015611ecc57508181905086869050145b611f21576040517f08c379a000000000000000000000000000000000000000000000000000000000815260040180806020018281038252605f8152602001806148f7605f913960600191505060405180910390fd5b60005b86869050811015611f9357611f86878783818110611f3e57fe5b9050602002013573ffffffffffffffffffffffffffffffffffffffff16868684818110611f6757fe5b90506020020135858585818110611f7a57fe5b905060200201356135e5565b8080600101915050611f24565b50505050505050565b611fa533611d1e565b612017576040517f08c379a00000000000000000000000000000000000000000000000000000000081526004018080602001828103825260188152602001807f676f7665726e61626c652f6f6e6c792d676f7665726e6f72000000000000000081525060200191505060405180910390fd5b61202485858585856136f3565b5050505050565b61203433611d1e565b6120a6576040517f08c379a00000000000000000000000000000000000000000000000000000000081526004018080602001828103825260188152602001807f676f7665726e61626c652f6f6e6c792d676f7665726e6f72000000000000000081525060200191505060405180910390fd5b6120af816137d8565b50565b60105481565b6120c133611d1e565b612133576040517f08c379a00000000000000000000000000000000000000000000000000000000081526004018080602001828103825260188152602001807f676f7665726e61626c652f6f6e6c792d676f7665726e6f72000000000000000081525060200191505060405180910390fd5b61213c8161381c565b50565b61214833611d1e565b806121585750612157336118a8565b5b6121ad576040517f08c379a00000000000000000000000000000000000000000000000000000000081526004018080602001828103825260348152602001806147246034913960400191505060405180910390fd5b6121b8838383612ffc565b505050565b600a60009054906101000a900460ff1681565b6121d933611d1e565b806121e957506121e8336118a8565b5b61223e576040517f08c379a00000000000000000000000000000000000000000000000000000000081526004018080602001828103825260348152602001806147246034913960400191505060405180910390fd5b6122498383836135e5565b505050565b801515600460009054906101000a900460ff16151514156122d7576040517f08c379a00000000000000000000000000000000000000000000000000000000081526004018080602001828103825260098152602001807f6e6f2d6368616e6765000000000000000000000000000000000000000000000081525060200191505060405180910390fd5b80600460006101000a81548160ff0219169083151502179055507f0e2fb031ee032dc02d8011dc50b816eb450cf856abd8261680dac74f72165bd28160405180821515815260200191505060405180910390a150565b6103e860010281111561238b576040517f08c379a0000000000000000000000000000000000000000000000000000000008152600401808060200182810382526042815260200180614a7b6042913960600191505060405180910390fd5b80600b8190555050565b60006123bd836000018373ffffffffffffffffffffffffffffffffffffffff1660001b613933565b905092915050565b600073ffffffffffffffffffffffffffffffffffffffff168373ffffffffffffffffffffffffffffffffffffffff16141561244b576040517f08c379a000000000000000000000000000000000000000000000000000000000815260040180806020018281038252602f81526020018061467e602f913960400191505060405180910390fd5b61245f826002613a1b90919063ffffffff16565b156124b5576040517f08c379a000000000000000000000000000000000000000000000000000000000815260040180806020018281038252602e8152602001806147b3602e913960400191505060405180910390fd5b73eeeeeeeeeeeeeeeeeeeeeeeeeeeeeeeeeeeeeeee73ffffffffffffffffffffffffffffffffffffffff168273ffffffffffffffffffffffffffffffffffffffff161415612549578273ffffffffffffffffffffffffffffffffffffffff166108fc829081150290604051600060405180830381858888f19350505050158015612543573d6000803e3d6000fd5b50612575565b61257483828473ffffffffffffffffffffffffffffffffffffffff16613a4b9092919063ffffffff16565b5b7f1e34c1aee8e83c2dcc14c21bb4bfeea7f46c0c998cb797ac7cc4d7a18f5c656b838383604051808473ffffffffffffffffffffffffffffffffffffffff1681526020018373ffffffffffffffffffffffffffffffffffffffff168152602001828152602001935050505060405180910390a1505050565b600a60009054906101000a900460ff1615612687573273ffffffffffffffffffffffffffffffffffffffff163373ffffffffffffffffffffffffffffffffffffffff1614612686576040517f08c379a00000000000000000000000000000000000000000000000000000000081526004018080602001828103825260228152602001806149bf6022913960400191505060405180910390fd5b5b600060075414801561269b57506000600854145b80156126a957506000600954145b156127ce57600560009054906101000a900473ffffffffffffffffffffffffffffffffffffffff1673ffffffffffffffffffffffffffffffffffffffff16636ba42aaa336040518263ffffffff1660e01b8152600401808273ffffffffffffffffffffffffffffffffffffffff168152602001915050602060405180830381600087803b15801561273957600080fd5b505af115801561274d573d6000803e3d6000fd5b505050506040513d602081101561276357600080fd5b81019080805190602001909291905050506127c9576040517f08c379a00000000000000000000000000000000000000000000000000000000081526004018080602001828103825260298152602001806149966029913960400191505060405180910390fd5b612ade565b600073ffffffffffffffffffffffffffffffffffffffff16600660009054906101000a900473ffffffffffffffffffffffffffffffffffffffff1673ffffffffffffffffffffffffffffffffffffffff16141561296357600560009054906101000a900473ffffffffffffffffffffffffffffffffffffffff1673ffffffffffffffffffffffffffffffffffffffff16631ff5f3da336007546008546009546040518563ffffffff1660e01b8152600401808573ffffffffffffffffffffffffffffffffffffffff168152602001848152602001838152602001828152602001945050505050602060405180830381600087803b1580156128ce57600080fd5b505af11580156128e2573d6000803e3d6000fd5b505050506040513d60208110156128f857600080fd5b810190808051906020019092919050505061295e576040517f08c379a000000000000000000000000000000000000000000000000000000000815260040180806020018281038252602c815260200180614877602c913960400191505060405180910390fd5b612add565b600560009054906101000a900473ffffffffffffffffffffffffffffffffffffffff1673ffffffffffffffffffffffffffffffffffffffff1663f9d46cf233600660009054906101000a900473ffffffffffffffffffffffffffffffffffffffff166007546008546009546040518663ffffffff1660e01b8152600401808673ffffffffffffffffffffffffffffffffffffffff1681526020018573ffffffffffffffffffffffffffffffffffffffff16815260200184815260200183815260200182815260200195505050505050602060405180830381600087803b158015612a4c57600080fd5b505af1158015612a60573d6000803e3d6000fd5b505050506040513d6020811015612a7657600080fd5b8101908080519060200190929190505050612adc576040517f08c379a00000000000000000000000000000000000000000000000000000000081526004018080602001828103825260338152602001806148a36033913960400191505060405180910390fd5b5b5b565b6000805a9050612aef846132b5565b612b44576040517f08c379a000000000000000000000000000000000000000000000000000000000815260040180806020018281038252602a815260200180614654602a913960400191505060405180910390fd5b60008473ffffffffffffffffffffffffffffffffffffffff1663f77c47916040518163ffffffff1660e01b815260040160206040518083038186803b158015612b8c57600080fd5b505afa158015612ba0573d6000803e3d6000fd5b505050506040513d6020811015612bb657600080fd5b8101908080519060200190929190505050905060008573ffffffffffffffffffffffffffffffffffffffff16631f1fcd516040518163ffffffff1660e01b815260040160206040518083038186803b158015612c1157600080fd5b505afa158015612c25573d6000803e3d6000fd5b505050506040513d6020811015612c3b57600080fd5b8101908080519060200190929190505050905060008273ffffffffffffffffffffffffffffffffffffffff1663a622ee7c836040518263ffffffff1660e01b8152600401808273ffffffffffffffffffffffffffffffffffffffff16815260200191505060206040518083038186803b158015612cb757600080fd5b505afa158015612ccb573d6000803e3d6000fd5b505050506040513d6020811015612ce157600080fd5b8101908080519060200190929190505050905060008173ffffffffffffffffffffffffffffffffffffffff166348a0d7546040518163ffffffff1660e01b815260040160206040518083038186803b158015612d3c57600080fd5b505afa158015612d50573d6000803e3d6000fd5b505050506040513d6020811015612d6657600080fd5b81019080805190602001909291905050509050600d60008973ffffffffffffffffffffffffffffffffffffffff1673ffffffffffffffffffffffffffffffffffffffff168152602001908152602001600020548110612e20578173ffffffffffffffffffffffffffffffffffffffff1663d389800f6040518163ffffffff1660e01b8152600401600060405180830381600087803b158015612e0757600080fd5b505af1158015612e1b573d6000803e3d6000fd5b505050505b612e2988613465565b612e3285613aed565b95507f7c1a0f411a17a9888c10f6796bb1a765787a7ef3c95f281f8b1bc5f13975a93a8833888a604051808573ffffffffffffffffffffffffffffffffffffffff1681526020018473ffffffffffffffffffffffffffffffffffffffff168152602001838152602001821515815260200194505050505060405180910390a1505050505092915050565b600560009054906101000a900473ffffffffffffffffffffffffffffffffffffffff1673ffffffffffffffffffffffffffffffffffffffff16634b3fde2183836040518363ffffffff1660e01b8152600401808373ffffffffffffffffffffffffffffffffffffffff16815260200182815260200192505050600060405180830381600087803b158015612f4f57600080fd5b505af1158015612f63573d6000803e3d6000fd5b505050505050565b80600560006101000a81548173ffffffffffffffffffffffffffffffffffffffff021916908373ffffffffffffffffffffffffffffffffffffffff1602179055507f0fec338132ef1fa68cd11242357e5e5e5af67dfd0c957b53ef411bca535817ef81604051808273ffffffffffffffffffffffffffffffffffffffff16815260200191505060405180910390a150565b6000600c60008573ffffffffffffffffffffffffffffffffffffffff1673ffffffffffffffffffffffffffffffffffffffff1681526020019081526020016000205414613094576040517f08c379a000000000000000000000000000000000000000000000000000000000815260040180806020018281038252603981526020018061461b6039913960400191505060405180910390fd5b61309e8383613b27565b6130a88382613bc8565b6130bc836012613c6990919063ffffffff16565b5042600e60008573ffffffffffffffffffffffffffffffffffffffff1673ffffffffffffffffffffffffffffffffffffffff168152602001908152602001600020819055507f45bb3eed5cd098efb0a286413fb1f3c11841762610cefbabae6a772963e916ba838383604051808473ffffffffffffffffffffffffffffffffffffffff168152602001838152602001828152602001935050505060405180910390a1505050565b600560009054906101000a900473ffffffffffffffffffffffffffffffffffffffff1673ffffffffffffffffffffffffffffffffffffffff16638d9acd2e600560009054906101000a900473ffffffffffffffffffffffffffffffffffffffff1684846040518463ffffffff1660e01b8152600401808473ffffffffffffffffffffffffffffffffffffffff1681526020018373ffffffffffffffffffffffffffffffffffffffff1681526020018281526020019350505050600060405180830381600087803b15801561323657600080fd5b505af115801561324a573d6000803e3d6000fd5b505050505050565b600081116132ab576040517f08c379a000000000000000000000000000000000000000000000000000000000815260040180806020018281038252603f815260200180614a0b603f913960400191505060405180910390fd5b80600f8190555050565b600080600c60008473ffffffffffffffffffffffffffffffffffffffff1673ffffffffffffffffffffffffffffffffffffffff168152602001908152602001600020541161334e576040517f08c379a0000000000000000000000000000000000000000000000000000000008152600401808060200182810382526031815260200180614a4a6031913960400191505060405180910390fd5b613365601154601054613c9990919063ffffffff16565b4210156133755760009050613427565b6133c9600f54600e60008573ffffffffffffffffffffffffffffffffffffffff1673ffffffffffffffffffffffffffffffffffffffff16815260200190815260200160002054613c9990919063ffffffff16565b4211156133d95760019050613427565b600c60008373ffffffffffffffffffffffffffffffffffffffff1673ffffffffffffffffffffffffffffffffffffffff1681526020019081526020016000205461342283611364565b101590505b919050565b8060118190555050565b600061344482600001613d21565b9050919050565b600061345a8360000183613d32565b60001c905092915050565b8073ffffffffffffffffffffffffffffffffffffffff16634641257d6040518163ffffffff1660e01b8152600401600060405180830381600087803b1580156134ad57600080fd5b505af11580156134c1573d6000803e3d6000fd5b5050505042600e60008373ffffffffffffffffffffffffffffffffffffffff1673ffffffffffffffffffffffffffffffffffffffff168152602001908152602001600020819055504260108190555050565b600160009054906101000a900473ffffffffffffffffffffffffffffffffffffffff166000806101000a81548173ffffffffffffffffffffffffffffffffffffffff021916908373ffffffffffffffffffffffffffffffffffffffff1602179055506000600160006101000a81548173ffffffffffffffffffffffffffffffffffffffff021916908373ffffffffffffffffffffffffffffffffffffffff1602179055507f7880f0fcc848e1f26e461654b100a69f8d0641e29aa29f6596c6afadbb36b5ea60405160405180910390a1565b6000600c60008573ffffffffffffffffffffffffffffffffffffffff1673ffffffffffffffffffffffffffffffffffffffff168152602001908152602001600020541161367d576040517f08c379a00000000000000000000000000000000000000000000000000000000081526004018080602001828103825260408152602001806149566040913960400191505060405180910390fd5b6136878383613b27565b6136918382613bc8565b7fd1cf2decb3f18f4af19bcc2eb0b44c6ba4792a96a1267d6acdc4734c9c63644f838383604051808473ffffffffffffffffffffffffffffffffffffffff168152602001838152602001828152602001935050505060405180910390a1505050565b84600660006101000a81548173ffffffffffffffffffffffffffffffffffffffff021916908373ffffffffffffffffffffffffffffffffffffffff16021790555083600781905550826008819055508160098190555080600a60006101000a81548160ff0219169083151502179055507ec65cfa7a4df705cbfccbeeabefaa0a7015a83bc2b7380c2aba930fa3d66d458585858585604051808673ffffffffffffffffffffffffffffffffffffffff16815260200185815260200184815260200183815260200182151581526020019550505050505060405180910390a15050505050565b80600460016101000a81548173ffffffffffffffffffffffffffffffffffffffff021916908373ffffffffffffffffffffffffffffffffffffffff16021790555050565b600073ffffffffffffffffffffffffffffffffffffffff168173ffffffffffffffffffffffffffffffffffffffff1614156138a2576040517f08c379a000000000000000000000000000000000000000000000000000000000815260040180806020018281038252603581526020018061477e6035913960400191505060405180910390fd5b80600160006101000a81548173ffffffffffffffffffffffffffffffffffffffff021916908373ffffffffffffffffffffffffffffffffffffffff1602179055507f56bddfa0cee9697cebddf9acd7f23dc6583663b05e007b877056d05017994def81604051808273ffffffffffffffffffffffffffffffffffffffff16815260200191505060405180910390a150565b60008083600101600084815260200190815260200160002054905060008114613a0f576000600182039050600060018660000180549050039050600086600001828154811061397e57fe5b906000526020600020015490508087600001848154811061399b57fe5b90600052602060002001819055506001830187600101600083815260200190815260200160002081905550866000018054806139d357fe5b60019003818190600052602060002001600090559055866001016000878152602001908152602001600020600090556001945050505050613a15565b60009150505b92915050565b6000613a43836000018373ffffffffffffffffffffffffffffffffffffffff1660001b613db5565b905092915050565b613ae88363a9059cbb60e01b8484604051602401808373ffffffffffffffffffffffffffffffffffffffff16815260200182815260200192505050604051602081830303815290604052907bffffffffffffffffffffffffffffffffffffffffffffffffffffffff19166020820180517bffffffffffffffffffffffffffffffffffffffffffffffffffffffff8381831617835250505050613dd8565b505050565b6000613b206103e8613b12600b54613b0486613ec7565b61401090919063ffffffff16565b61409690919063ffffffff16565b9050919050565b60008111613b80576040517f08c379a000000000000000000000000000000000000000000000000000000000815260040180806020018281038252603d8152602001806146e7603d913960400191505060405180910390fd5b80600c60008473ffffffffffffffffffffffffffffffffffffffff1673ffffffffffffffffffffffffffffffffffffffff168152602001908152602001600020819055505050565b60008111613c21576040517f08c379a000000000000000000000000000000000000000000000000000000000815260040180806020018281038252603a8152602001806146ad603a913960400191505060405180910390fd5b80600d60008473ffffffffffffffffffffffffffffffffffffffff1673ffffffffffffffffffffffffffffffffffffffff168152602001908152602001600020819055505050565b6000613c91836000018373ffffffffffffffffffffffffffffffffffffffff1660001b6140e0565b905092915050565b600080828401905083811015613d17576040517f08c379a000000000000000000000000000000000000000000000000000000000815260040180806020018281038252601b8152602001807f536166654d6174683a206164646974696f6e206f766572666c6f77000000000081525060200191505060405180910390fd5b8091505092915050565b600081600001805490509050919050565b600081836000018054905011613d93576040517f08c379a00000000000000000000000000000000000000000000000000000000081526004018080602001828103825260228152602001806145f96022913960400191505060405180910390fd5b826000018281548110613da257fe5b9060005260206000200154905092915050565b600080836001016000848152602001908152602001600020541415905092915050565b6060613e3a826040518060400160405280602081526020017f5361666545524332303a206c6f772d6c6576656c2063616c6c206661696c65648152508573ffffffffffffffffffffffffffffffffffffffff166141509092919063ffffffff16565b9050600081511115613ec257808060200190516020811015613e5b57600080fd5b8101908080519060200190929190505050613ec1576040517f08c379a000000000000000000000000000000000000000000000000000000000815260040180806020018281038252602a8152602001806149e1602a913960400191505060405180910390fd5b5b505050565b6000600560009054906101000a900473ffffffffffffffffffffffffffffffffffffffff1673ffffffffffffffffffffffffffffffffffffffff166309aff02b6040518163ffffffff1660e01b815260040160206040518083038186803b158015613f3157600080fd5b505afa158015613f45573d6000803e3d6000fd5b505050506040513d6020811015613f5b57600080fd5b810190808051906020019092919050505073ffffffffffffffffffffffffffffffffffffffff1663525ea631613f9a5a8561416890919063ffffffff16565b6040518263ffffffff1660e01b81526004018082815260200191505060206040518083038186803b158015613fce57600080fd5b505afa158015613fe2573d6000803e3d6000fd5b505050506040513d6020811015613ff857600080fd5b81019080805190602001909291905050509050919050565b6000808314156140235760009050614090565b600082840290508284828161403457fe5b041461408b576040517f08c379a00000000000000000000000000000000000000000000000000000000081526004018080602001828103825260218152602001806148d66021913960400191505060405180910390fd5b809150505b92915050565b60006140d883836040518060400160405280601a81526020017f536166654d6174683a206469766973696f6e206279207a65726f0000000000008152506141b2565b905092915050565b60006140ec8383613db5565b61414557826000018290806001815401808255809150506001900390600052602060002001600090919091909150558260000180549050836001016000848152602001908152602001600020819055506001905061414a565b600090505b92915050565b606061415f8484600085614278565b90509392505050565b60006141aa83836040518060400160405280601e81526020017f536166654d6174683a207375627472616374696f6e206f766572666c6f770000815250614421565b905092915050565b6000808311829061425e576040517f08c379a00000000000000000000000000000000000000000000000000000000081526004018080602001828103825283818151815260200191508051906020019080838360005b83811015614223578082015181840152602081019050614208565b50505050905090810190601f1680156142505780820380516001836020036101000a031916815260200191505b509250505060405180910390fd5b50600083858161426a57fe5b049050809150509392505050565b6060824710156142d3576040517f08c379a00000000000000000000000000000000000000000000000000000000081526004018080602001828103825260268152602001806147586026913960400191505060405180910390fd5b6142dc856144e1565b61434e576040517f08c379a000000000000000000000000000000000000000000000000000000000815260040180806020018281038252601d8152602001807f416464726573733a2063616c6c20746f206e6f6e2d636f6e747261637400000081525060200191505060405180910390fd5b600060608673ffffffffffffffffffffffffffffffffffffffff1685876040518082805190602001908083835b6020831061439e578051825260208201915060208101905060208303925061437b565b6001836020036101000a03801982511681845116808217855250505050505090500191505060006040518083038185875af1925050503d8060008114614400576040519150601f19603f3d011682016040523d82523d6000602084013e614405565b606091505b50915091506144158282866144f4565b92505050949350505050565b60008383111582906144ce576040517f08c379a00000000000000000000000000000000000000000000000000000000081526004018080602001828103825283818151815260200191508051906020019080838360005b83811015614493578082015181840152602081019050614478565b50505050905090810190601f1680156144c05780820380516001836020036101000a031916815260200191505b509250505060405180910390fd5b5060008385039050809150509392505050565b600080823b905060008111915050919050565b60608315614504578290506145b9565b6000835111156145175782518084602001fd5b816040517f08c379a00000000000000000000000000000000000000000000000000000000081526004018080602001828103825283818151815260200191508051906020019080838360005b8381101561457e578082015181840152602081019050614563565b50505050905090810190601f1680156145ab5780820380516001836020036101000a031916815260200191505b509250505060405180910390fd5b939250505056fe43727653747261746567794b65657033724a6f623a3a72656d6f76652d73747261746567793a73747261746567792d6e6f742d6164646564456e756d657261626c655365743a20696e646578206f7574206f6620626f756e647343727653747261746567794b65657033724a6f623a3a6164642d73747261746567793a73747261746567792d616c72656164792d616464656443727653747261746567794b65657033724a6f623a3a686172766573743a6e6f742d776f726b61626c65636f6c6c65637461626c652d647573742f63616e742d73656e642d647573742d746f2d7a65726f2d6164647265737343727653747261746567794b65657033724a6f623a3a7365742d72657175697265642d6561726e3a73686f756c642d6e6f742d62652d7a65726f43727653747261746567794b65657033724a6f623a3a7365742d72657175697265642d686172766573743a73686f756c642d6e6f742d62652d7a65726f4d616368696e6572793a3a6f6e6c79476f7665726e6f724f724d656368616e69633a696e76616c69642d6d73672d73656e646572416464726573733a20696e73756666696369656e742062616c616e636520666f722063616c6c676f7665726e61626c652f70656e64696e672d676f7665726e6f722d73686f756c642d6e6f742d62652d7a65726f2d616464726573636f6c6c65637461626c652d647573742f746f6b656e2d69732d706172742d6f662d7468652d70726f746f636f6c43727653747261746567794b65657033724a6f623a3a63616c63756c6174652d686172766573743a73747261746567792d6e6f742d616464656443727653747261746567794b65657033724a6f623a3a6164642d737472617465676965733a737472617465676965732d72657175697265642d68617276657374732d616e642d6561726e732d646966666572656e742d6c656e6774686b65657033723a3a69734b65657065723a6b65657065722d6e6f742d6d696e2d726571756972656d656e74736b65657033723a3a69734b65657065723a6b65657065722d6e6f742d637573746f6d2d6d696e2d726571756972656d656e7473536166654d6174683a206d756c7469706c69636174696f6e206f766572666c6f7743727653747261746567794b65657033724a6f623a3a7570646174652d737472617465676965733a737472617465676965732d72657175697265642d68617276657374732d616e642d6561726e732d646966666572656e742d6c656e67746843727653747261746567794b65657033724a6f623a3a7570646174652d72657175697265642d686172766573743a73747261746567792d6e6f742d61646465646b65657033723a3a69734b65657065723a6b65657065722d69732d6e6f742d726567697374657265646b65657033723a3a69734b65657065723a6b65657065722d69732d6e6f742d656f615361666545524332303a204552433230206f7065726174696f6e20646964206e6f74207375636365656443727653747261746567794b65657033724a6f623a3a7365742d6d61782d686172766573742d706572696f643a73686f756c642d6e6f742d62652d7a65726f43727653747261746567794b65657033724a6f623a3a776f726b61626c653a73747261746567792d6e6f742d616464656443727653747261746567794b65657033724a6f623a3a7365742d7265776172642d6d756c7469706c6965723a6d756c7469706c6965722d657863656564732d6d6178a164736f6c634300060c000a676f7665726e61626c652f676f7665726e6f722d73686f756c642d6e6f742d62652d7a65726f2d6164647265737343727653747261746567794b65657033724a6f623a3a7365742d6d61782d686172766573742d706572696f643a73686f756c642d6e6f742d62652d7a65726f",
  "linkReferences": {},
  "deployedLinkReferences": {}
}