{
  "_format": "hh-sol-artifact-1",
  "contractName": "HarvestV2Keep3rJob",
  "sourceName": "contracts/jobs/v2/HarvestV2Keep3rJob.sol",
  "abi": [
    {
      "inputs": [
        {
          "internalType": "address",
          "name": "_mechanicsRegistry",
          "type": "address"
        },
        {
          "internalType": "address",
          "name": "_keep3r",
          "type": "address"
        },
        {
          "internalType": "address",
          "name": "_bond",
          "type": "address"
        },
        {
          "internalType": "uint256",
          "name": "_minBond",
          "type": "uint256"
        },
        {
          "internalType": "uint256",
          "name": "_earned",
          "type": "uint256"
        },
        {
          "internalType": "uint256",
          "name": "_age",
          "type": "uint256"
        },
        {
          "internalType": "bool",
          "name": "_onlyEOA",
          "type": "bool"
        },
        {
          "internalType": "address",
          "name": "_keep3rHelper",
          "type": "address"
        },
        {
          "internalType": "address",
          "name": "_slidingOracle",
          "type": "address"
        },
        {
          "internalType": "address",
          "name": "_v2Keeper",
          "type": "address"
        },
        {
          "internalType": "uint256",
          "name": "_workCooldown",
          "type": "uint256"
        }
      ],
      "stateMutability": "nonpayable",
      "type": "constructor"
    },
    {
      "anonymous": false,
      "inputs": [
        {
          "indexed": false,
          "internalType": "address",
          "name": "_to",
          "type": "address"
        },
        {
          "indexed": false,
          "internalType": "address",
          "name": "token",
          "type": "address"
        },
        {
          "indexed": false,
          "internalType": "uint256",
          "name": "amount",
          "type": "uint256"
        }
      ],
      "name": "DustSent",
      "type": "event"
    },
    {
      "anonymous": false,
      "inputs": [
        {
          "indexed": false,
          "internalType": "address",
          "name": "_strategy",
          "type": "address"
        }
      ],
      "name": "ForceWorked",
      "type": "event"
    },
    {
      "anonymous": false,
      "inputs": [],
      "name": "GovernorAccepted",
      "type": "event"
    },
    {
      "anonymous": false,
      "inputs": [
        {
          "indexed": false,
          "internalType": "address",
          "name": "keep3rHelper",
          "type": "address"
        }
      ],
      "name": "Keep3rHelperSet",
      "type": "event"
    },
    {
      "anonymous": false,
      "inputs": [
        {
          "indexed": false,
          "internalType": "address",
          "name": "_bond",
          "type": "address"
        },
        {
          "indexed": false,
          "internalType": "uint256",
          "name": "_minBond",
          "type": "uint256"
        },
        {
          "indexed": false,
          "internalType": "uint256",
          "name": "_earned",
          "type": "uint256"
        },
        {
          "indexed": false,
          "internalType": "uint256",
          "name": "_age",
          "type": "uint256"
        },
        {
          "indexed": false,
          "internalType": "bool",
          "name": "_onlyEOA",
          "type": "bool"
        }
      ],
      "name": "Keep3rRequirementsSet",
      "type": "event"
    },
    {
      "anonymous": false,
      "inputs": [
        {
          "indexed": false,
          "internalType": "address",
          "name": "keep3r",
          "type": "address"
        }
      ],
      "name": "Keep3rSet",
      "type": "event"
    },
    {
      "anonymous": false,
      "inputs": [
        {
          "indexed": false,
          "internalType": "bool",
          "name": "_paused",
          "type": "bool"
        }
      ],
      "name": "Paused",
      "type": "event"
    },
    {
      "anonymous": false,
      "inputs": [
        {
          "indexed": false,
          "internalType": "address",
          "name": "pendingGovernor",
          "type": "address"
        }
      ],
      "name": "PendingGovernorSet",
      "type": "event"
    },
    {
      "anonymous": false,
      "inputs": [
        {
          "indexed": false,
          "internalType": "uint256",
          "name": "_rewardMultiplier",
          "type": "uint256"
        }
      ],
      "name": "SetRewardMultiplier",
      "type": "event"
    },
    {
      "anonymous": false,
      "inputs": [
        {
          "indexed": false,
          "internalType": "address",
          "name": "slidingOracle",
          "type": "address"
        }
      ],
      "name": "SlidingOracleSet",
      "type": "event"
    },
    {
      "anonymous": false,
      "inputs": [
        {
          "indexed": false,
          "internalType": "address",
          "name": "_strategy",
          "type": "address"
        },
        {
          "indexed": false,
          "internalType": "uint256",
          "name": "_requiredAmount",
          "type": "uint256"
        }
      ],
      "name": "StrategyAdded",
      "type": "event"
    },
    {
      "anonymous": false,
      "inputs": [
        {
          "indexed": false,
          "internalType": "address",
          "name": "_strategy",
          "type": "address"
        },
        {
          "indexed": false,
          "internalType": "uint256",
          "name": "_requiredAmount",
          "type": "uint256"
        }
      ],
      "name": "StrategyModified",
      "type": "event"
    },
    {
      "anonymous": false,
      "inputs": [
        {
          "indexed": false,
          "internalType": "address",
          "name": "_strategy",
          "type": "address"
        }
      ],
      "name": "StrategyRemoved",
      "type": "event"
    },
    {
      "anonymous": false,
      "inputs": [
        {
          "indexed": false,
          "internalType": "address",
          "name": "_strategy",
          "type": "address"
        },
        {
          "indexed": false,
          "internalType": "address",
          "name": "_keeper",
          "type": "address"
        },
        {
          "indexed": false,
          "internalType": "uint256",
          "name": "_credits",
          "type": "uint256"
        },
        {
          "indexed": false,
          "internalType": "bool",
          "name": "_workForTokens",
          "type": "bool"
        }
      ],
      "name": "Worked",
      "type": "event"
    },
    {
      "inputs": [],
      "name": "ETH_ADDRESS",
      "outputs": [
        {
          "internalType": "address",
          "name": "",
          "type": "address"
        }
      ],
      "stateMutability": "view",
      "type": "function"
    },
    {
      "inputs": [],
      "name": "MAX_REWARD_MULTIPLIER",
      "outputs": [
        {
          "internalType": "uint256",
          "name": "",
          "type": "uint256"
        }
      ],
      "stateMutability": "view",
      "type": "function"
    },
    {
      "inputs": [],
      "name": "PRECISION",
      "outputs": [
        {
          "internalType": "uint256",
          "name": "",
          "type": "uint256"
        }
      ],
      "stateMutability": "view",
      "type": "function"
    },
    {
      "inputs": [],
      "name": "V2Keeper",
      "outputs": [
        {
          "internalType": "contract IV2Keeper",
          "name": "",
          "type": "address"
        }
      ],
      "stateMutability": "view",
      "type": "function"
    },
    {
      "inputs": [],
      "name": "WETH",
      "outputs": [
        {
          "internalType": "address",
          "name": "",
          "type": "address"
        }
      ],
      "stateMutability": "view",
      "type": "function"
    },
    {
      "inputs": [],
      "name": "acceptGovernor",
      "outputs": [],
      "stateMutability": "nonpayable",
      "type": "function"
    },
    {
      "inputs": [
        {
          "internalType": "address[]",
          "name": "_strategies",
          "type": "address[]"
        },
        {
          "internalType": "uint256[]",
          "name": "_requiredAmounts",
          "type": "uint256[]"
        }
      ],
      "name": "addStrategies",
      "outputs": [],
      "stateMutability": "nonpayable",
      "type": "function"
    },
    {
      "inputs": [
        {
          "internalType": "address",
          "name": "_strategy",
          "type": "address"
        },
        {
          "internalType": "uint256",
          "name": "_requiredAmount",
          "type": "uint256"
        }
      ],
      "name": "addStrategy",
      "outputs": [],
      "stateMutability": "nonpayable",
      "type": "function"
    },
    {
      "inputs": [],
      "name": "age",
      "outputs": [
        {
          "internalType": "uint256",
          "name": "",
          "type": "uint256"
        }
      ],
      "stateMutability": "view",
      "type": "function"
    },
    {
      "inputs": [],
      "name": "bond",
      "outputs": [
        {
          "internalType": "address",
          "name": "",
          "type": "address"
        }
      ],
      "stateMutability": "view",
      "type": "function"
    },
    {
      "inputs": [],
      "name": "earned",
      "outputs": [
        {
          "internalType": "uint256",
          "name": "",
          "type": "uint256"
        }
      ],
      "stateMutability": "view",
      "type": "function"
    },
    {
      "inputs": [
        {
          "internalType": "address",
          "name": "_strategy",
          "type": "address"
        }
      ],
      "name": "forceWork",
      "outputs": [],
      "stateMutability": "nonpayable",
      "type": "function"
    },
    {
      "inputs": [],
      "name": "governor",
      "outputs": [
        {
          "internalType": "address",
          "name": "",
          "type": "address"
        }
      ],
      "stateMutability": "view",
      "type": "function"
    },
    {
      "inputs": [
        {
          "internalType": "address",
          "name": "_account",
          "type": "address"
        }
      ],
      "name": "isGovernor",
      "outputs": [
        {
          "internalType": "bool",
          "name": "_isGovernor",
          "type": "bool"
        }
      ],
      "stateMutability": "view",
      "type": "function"
    },
    {
      "inputs": [
        {
          "internalType": "address",
          "name": "_mechanic",
          "type": "address"
        }
      ],
      "name": "isMechanic",
      "outputs": [
        {
          "internalType": "bool",
          "name": "_isMechanic",
          "type": "bool"
        }
      ],
      "stateMutability": "view",
      "type": "function"
    },
    {
      "inputs": [],
      "name": "keep3r",
      "outputs": [
        {
          "internalType": "address",
          "name": "_keep3r",
          "type": "address"
        }
      ],
      "stateMutability": "view",
      "type": "function"
    },
    {
      "inputs": [],
      "name": "keep3rHelper",
      "outputs": [
        {
          "internalType": "address",
          "name": "",
          "type": "address"
        }
      ],
      "stateMutability": "view",
      "type": "function"
    },
    {
      "inputs": [
        {
          "internalType": "address",
          "name": "",
          "type": "address"
        }
      ],
      "name": "lastWorkAt",
      "outputs": [
        {
          "internalType": "uint256",
          "name": "",
          "type": "uint256"
        }
      ],
      "stateMutability": "view",
      "type": "function"
    },
    {
      "inputs": [],
      "name": "mechanicsRegistry",
      "outputs": [
        {
          "internalType": "address",
          "name": "_mechanicRegistry",
          "type": "address"
        }
      ],
      "stateMutability": "view",
      "type": "function"
    },
    {
      "inputs": [],
      "name": "minBond",
      "outputs": [
        {
          "internalType": "uint256",
          "name": "",
          "type": "uint256"
        }
      ],
      "stateMutability": "view",
      "type": "function"
    },
    {
      "inputs": [],
      "name": "onlyEOA",
      "outputs": [
        {
          "internalType": "bool",
          "name": "",
          "type": "bool"
        }
      ],
      "stateMutability": "view",
      "type": "function"
    },
    {
      "inputs": [
        {
          "internalType": "bool",
          "name": "_paused",
          "type": "bool"
        }
      ],
      "name": "pause",
      "outputs": [],
      "stateMutability": "nonpayable",
      "type": "function"
    },
    {
      "inputs": [],
      "name": "paused",
      "outputs": [
        {
          "internalType": "bool",
          "name": "",
          "type": "bool"
        }
      ],
      "stateMutability": "view",
      "type": "function"
    },
    {
      "inputs": [],
      "name": "pendingGovernor",
      "outputs": [
        {
          "internalType": "address",
          "name": "",
          "type": "address"
        }
      ],
      "stateMutability": "view",
      "type": "function"
    },
    {
      "inputs": [
        {
          "internalType": "address",
          "name": "_strategy",
          "type": "address"
        }
      ],
      "name": "removeStrategy",
      "outputs": [],
      "stateMutability": "nonpayable",
      "type": "function"
    },
    {
      "inputs": [
        {
          "internalType": "address",
          "name": "",
          "type": "address"
        }
      ],
      "name": "requiredAmount",
      "outputs": [
        {
          "internalType": "uint256",
          "name": "",
          "type": "uint256"
        }
      ],
      "stateMutability": "view",
      "type": "function"
    },
    {
      "inputs": [],
      "name": "rewardMultiplier",
      "outputs": [
        {
          "internalType": "uint256",
          "name": "",
          "type": "uint256"
        }
      ],
      "stateMutability": "view",
      "type": "function"
    },
    {
      "inputs": [
        {
          "internalType": "address",
          "name": "_to",
          "type": "address"
        },
        {
          "internalType": "address",
          "name": "_token",
          "type": "address"
        },
        {
          "internalType": "uint256",
          "name": "_amount",
          "type": "uint256"
        }
      ],
      "name": "sendDust",
      "outputs": [],
      "stateMutability": "nonpayable",
      "type": "function"
    },
    {
      "inputs": [
        {
          "internalType": "address",
          "name": "_keep3r",
          "type": "address"
        }
      ],
      "name": "setKeep3r",
      "outputs": [],
      "stateMutability": "nonpayable",
      "type": "function"
    },
    {
      "inputs": [
        {
          "internalType": "address",
          "name": "_bond",
          "type": "address"
        },
        {
          "internalType": "uint256",
          "name": "_minBond",
          "type": "uint256"
        },
        {
          "internalType": "uint256",
          "name": "_earned",
          "type": "uint256"
        },
        {
          "internalType": "uint256",
          "name": "_age",
          "type": "uint256"
        },
        {
          "internalType": "bool",
          "name": "_onlyEOA",
          "type": "bool"
        }
      ],
      "name": "setKeep3rRequirements",
      "outputs": [],
      "stateMutability": "nonpayable",
      "type": "function"
    },
    {
      "inputs": [
        {
          "internalType": "address",
          "name": "_mechanicsRegistry",
          "type": "address"
        }
      ],
      "name": "setMechanicsRegistry",
      "outputs": [],
      "stateMutability": "nonpayable",
      "type": "function"
    },
    {
      "inputs": [
        {
          "internalType": "address",
          "name": "_pendingGovernor",
          "type": "address"
        }
      ],
      "name": "setPendingGovernor",
      "outputs": [],
      "stateMutability": "nonpayable",
      "type": "function"
    },
    {
      "inputs": [
        {
          "internalType": "uint256",
          "name": "_rewardMultiplier",
          "type": "uint256"
        }
      ],
      "name": "setRewardMultiplier",
      "outputs": [],
      "stateMutability": "nonpayable",
      "type": "function"
    },
    {
      "inputs": [
        {
          "internalType": "uint256",
          "name": "_workCooldown",
          "type": "uint256"
        }
      ],
      "name": "setWorkCooldown",
      "outputs": [],
      "stateMutability": "nonpayable",
      "type": "function"
    },
    {
      "inputs": [],
      "name": "slidingOracle",
      "outputs": [
        {
          "internalType": "address",
          "name": "",
          "type": "address"
        }
      ],
      "stateMutability": "view",
      "type": "function"
    },
    {
      "inputs": [],
      "name": "strategies",
      "outputs": [
        {
          "internalType": "address[]",
          "name": "_strategies",
          "type": "address[]"
        }
      ],
      "stateMutability": "view",
      "type": "function"
    },
    {
      "inputs": [
        {
          "internalType": "address",
          "name": "_strategy",
          "type": "address"
        },
        {
          "internalType": "uint256",
          "name": "_requiredAmount",
          "type": "uint256"
        }
      ],
      "name": "updateRequiredAmount",
      "outputs": [],
      "stateMutability": "nonpayable",
      "type": "function"
    },
    {
      "inputs": [
        {
          "internalType": "address[]",
          "name": "_strategies",
          "type": "address[]"
        },
        {
          "internalType": "uint256[]",
          "name": "_requiredAmounts",
          "type": "uint256[]"
        }
      ],
      "name": "updateRequiredAmounts",
      "outputs": [],
      "stateMutability": "nonpayable",
      "type": "function"
    },
    {
      "inputs": [
        {
          "internalType": "address",
          "name": "_strategy",
          "type": "address"
        }
      ],
      "name": "work",
      "outputs": [
        {
          "internalType": "uint256",
          "name": "_credits",
          "type": "uint256"
        }
      ],
      "stateMutability": "nonpayable",
      "type": "function"
    },
    {
      "inputs": [],
      "name": "workCooldown",
      "outputs": [
        {
          "internalType": "uint256",
          "name": "",
          "type": "uint256"
        }
      ],
      "stateMutability": "view",
      "type": "function"
    },
    {
      "inputs": [
        {
          "internalType": "address",
          "name": "_strategy",
          "type": "address"
        }
      ],
      "name": "workForBond",
      "outputs": [
        {
          "internalType": "uint256",
          "name": "_credits",
          "type": "uint256"
        }
      ],
      "stateMutability": "nonpayable",
      "type": "function"
    },
    {
      "inputs": [
        {
          "internalType": "address",
          "name": "_strategy",
          "type": "address"
        }
      ],
      "name": "workForTokens",
      "outputs": [
        {
          "internalType": "uint256",
          "name": "_credits",
          "type": "uint256"
        }
      ],
      "stateMutability": "nonpayable",
      "type": "function"
    },
    {
      "inputs": [
        {
          "internalType": "address",
          "name": "_strategy",
          "type": "address"
        }
      ],
      "name": "workable",
      "outputs": [
        {
          "internalType": "bool",
          "name": "",
          "type": "bool"
        }
      ],
      "stateMutability": "view",
      "type": "function"
    }
  ],
  "bytecode": "0x60806040526103e8600102600b553480156200001a57600080fd5b50604051620048af380380620048af83398181016040526101608110156200004157600080fd5b8101908080519060200190929190805190602001909291908051906020019092919080519060200190929190805190602001909291908051906020019092919080519060200190929190805190602001909291908051906020019092919080519060200190929190805190602001909291905050508a8a8a8a8a8a8a8a8a8a8a898b8033600073ffffffffffffffffffffffffffffffffffffffff168173ffffffffffffffffffffffffffffffffffffffff1614156200014d576040517f08c379a000000000000000000000000000000000000000000000000000000000815260040180806020018281038252602e81526020018062004881602e913960400191505060405180910390fd5b806000806101000a81548173ffffffffffffffffffffffffffffffffffffffff021916908373ffffffffffffffffffffffffffffffffffffffff160217905550506200019f81620002c360201b60201c565b5050620001b2816200030760201b60201c565b50620001c889898989896200039860201b60201c565b81600c60006101000a81548173ffffffffffffffffffffffffffffffffffffffff021916908373ffffffffffffffffffffffffffffffffffffffff16021790555083600d60006101000a81548173ffffffffffffffffffffffffffffffffffffffff021916908373ffffffffffffffffffffffffffffffffffffffff16021790555082600e60006101000a81548173ffffffffffffffffffffffffffffffffffffffff021916908373ffffffffffffffffffffffffffffffffffffffff1602179055506000811115620002a757620002a6816200047d60201b60201c565b5b50505050505050505050505050505050505050505050620004e2565b80600460016101000a81548173ffffffffffffffffffffffffffffffffffffffff021916908373ffffffffffffffffffffffffffffffffffffffff16021790555050565b80600560006101000a81548173ffffffffffffffffffffffffffffffffffffffff021916908373ffffffffffffffffffffffffffffffffffffffff1602179055507f0fec338132ef1fa68cd11242357e5e5e5af67dfd0c957b53ef411bca535817ef81604051808273ffffffffffffffffffffffffffffffffffffffff16815260200191505060405180910390a150565b84600660006101000a81548173ffffffffffffffffffffffffffffffffffffffff021916908373ffffffffffffffffffffffffffffffffffffffff16021790555083600781905550826008819055508160098190555080600a60006101000a81548160ff0219169083151502179055507ec65cfa7a4df705cbfccbeeabefaa0a7015a83bc2b7380c2aba930fa3d66d458585858585604051808673ffffffffffffffffffffffffffffffffffffffff16815260200185815260200184815260200183815260200182151581526020019550505050505060405180910390a15050505050565b60008111620004d8576040517f08c379a0000000000000000000000000000000000000000000000000000000008152600401808060200182810382526031815260200180620048506031913960400191505060405180910390fd5b8060138190555050565b61435e80620004f26000396000f3fe608060405234801561001057600080fd5b50600436106102695760003560e01c806374c2ca8311610151578063dd7ba420116100c3578063e89352de11610087578063e89352de14610b93578063ef47da6d14610c01578063f11a1d1a14610c45578063f235757f14610c79578063fb2a410a14610cbd578063fbea570914610cdd57610269565b8063dd7ba42014610a99578063e06a7cb914610add578063e3056a3414610afb578063e43581b814610b2f578063e58bb63914610b8957610269565b8063aaf5eb6811610115578063aaf5eb681461092e578063ad5c46481461094c578063b9a52e2814610980578063c9411e22146109ce578063d6f1926214610a1c578063d9f9027f14610a3a57610269565b806374c2ca8314610820578063831518b71461084e57806383acafc41461086c5780639f471303146108a0578063a734f06e146108fa57610269565b806334d6020d116101ea5780636038f10c116101ae5780636038f10c146106ca578063634c7bb514610722578063646f6eb41461075657806364c9ec6f1461077457806365834acc146107a85780636f2c590a1461080257610269565b806334d6020d1461058257806336df7ea5146105b65780633afbd4771461060e5780634cc18e57146106665780635c975abb146106aa57610269565b8063175188e811610231578063175188e81461038c57806325fc3b22146103d0578063262a9dff1461049e57806328584aa7146104bc5780632db8c1291461051457610269565b806302329a291461026e5780630bd075a11461029e5780630c340a24146102cc57806310262803146103005780631078f38814610358575b600080fd5b61029c6004803603602081101561028457600080fd5b81019080803515159060200190929190505050610dab565b005b6102ca600480360360208110156102b457600080fd5b8101908080359060200190929190505050610e32565b005b6102d4610ee3565b604051808273ffffffffffffffffffffffffffffffffffffffff16815260200191505060405180910390f35b6103426004803603602081101561031657600080fd5b81019080803573ffffffffffffffffffffffffffffffffffffffff169060200190929190505050610f07565b6040518082815260200191505060405180910390f35b610360610f1f565b604051808273ffffffffffffffffffffffffffffffffffffffff16815260200191505060405180910390f35b6103ce600480360360208110156103a257600080fd5b81019080803573ffffffffffffffffffffffffffffffffffffffff169060200190929190505050610f49565b005b61049c600480360360408110156103e657600080fd5b810190808035906020019064010000000081111561040357600080fd5b82018360208201111561041557600080fd5b8035906020019184602083028401116401000000008311171561043757600080fd5b90919293919293908035906020019064010000000081111561045857600080fd5b82018360208201111561046a57600080fd5b8035906020019184602083028401116401000000008311171561048c57600080fd5b90919293919293905050506110c8565b005b6104a66111fa565b6040518082815260200191505060405180910390f35b6104fe600480360360208110156104d257600080fd5b81019080803573ffffffffffffffffffffffffffffffffffffffff169060200190929190505050611200565b6040518082815260200191505060405180910390f35b6105806004803603606081101561052a57600080fd5b81019080803573ffffffffffffffffffffffffffffffffffffffff169060200190929190803573ffffffffffffffffffffffffffffffffffffffff16906020019092919080359060200190929190505050611218565b005b61058a6112a3565b604051808273ffffffffffffffffffffffffffffffffffffffff16815260200191505060405180910390f35b6105f8600480360360208110156105cc57600080fd5b81019080803573ffffffffffffffffffffffffffffffffffffffff1690602001909291905050506112c9565b6040518082815260200191505060405180910390f35b6106506004803603602081101561062457600080fd5b81019080803573ffffffffffffffffffffffffffffffffffffffff1690602001909291905050506112db565b6040518082815260200191505060405180910390f35b6106a86004803603602081101561067c57600080fd5b81019080803573ffffffffffffffffffffffffffffffffffffffff169060200190929190505050611384565b005b6106b261140b565b60405180821515815260200191505060405180910390f35b61070c600480360360208110156106e057600080fd5b81019080803573ffffffffffffffffffffffffffffffffffffffff16906020019092919050505061141e565b6040518082815260200191505060405180910390f35b61072a6114c7565b604051808273ffffffffffffffffffffffffffffffffffffffff16815260200191505060405180910390f35b61075e6114f1565b6040518082815260200191505060405180910390f35b61077c6114fa565b604051808273ffffffffffffffffffffffffffffffffffffffff16815260200191505060405180910390f35b6107ea600480360360208110156107be57600080fd5b81019080803573ffffffffffffffffffffffffffffffffffffffff169060200190929190505050611520565b60405180821515815260200191505060405180910390f35b61080a6115ed565b6040518082815260200191505060405180910390f35b61084c6004803603602081101561083657600080fd5b81019080803590602001909291905050506115f3565b005b61085661166d565b6040518082815260200191505060405180910390f35b610874611673565b604051808273ffffffffffffffffffffffffffffffffffffffff16815260200191505060405180910390f35b6108e2600480360360208110156108b657600080fd5b81019080803573ffffffffffffffffffffffffffffffffffffffff169060200190929190505050611699565b60405180821515815260200191505060405180910390f35b6109026116ab565b604051808273ffffffffffffffffffffffffffffffffffffffff16815260200191505060405180910390f35b6109366116c3565b6040518082815260200191505060405180910390f35b6109546116c9565b604051808273ffffffffffffffffffffffffffffffffffffffff16815260200191505060405180910390f35b6109cc6004803603604081101561099657600080fd5b81019080803573ffffffffffffffffffffffffffffffffffffffff169060200190929190803590602001909291905050506116e1565b005b610a1a600480360360408110156109e457600080fd5b81019080803573ffffffffffffffffffffffffffffffffffffffff1690602001909291908035906020019092919050505061175d565b005b610a246117d9565b6040518082815260200191505060405180910390f35b610a426117df565b6040518080602001828103825283818151815260200191508051906020019060200280838360005b83811015610a85578082015181840152602081019050610a6a565b505050509050019250505060405180910390f35b610adb60048036036020811015610aaf57600080fd5b81019080803573ffffffffffffffffffffffffffffffffffffffff1690602001909291905050506118b2565b005b610ae5611979565b6040518082815260200191505060405180910390f35b610b0361197f565b604051808273ffffffffffffffffffffffffffffffffffffffff16815260200191505060405180910390f35b610b7160048036036020811015610b4557600080fd5b81019080803573ffffffffffffffffffffffffffffffffffffffff1690602001909291905050506119a5565b60405180821515815260200191505060405180910390f35b610b916119fe565b005b610bff600480360360a0811015610ba957600080fd5b81019080803573ffffffffffffffffffffffffffffffffffffffff169060200190929190803590602001909291908035906020019092919080359060200190929190803515159060200190929190505050611acb565b005b610c4360048036036020811015610c1757600080fd5b81019080803573ffffffffffffffffffffffffffffffffffffffff169060200190929190505050611b5a565b005b610c4d611be1565b604051808273ffffffffffffffffffffffffffffffffffffffff16815260200191505060405180910390f35b610cbb60048036036020811015610c8f57600080fd5b81019080803573ffffffffffffffffffffffffffffffffffffffff169060200190929190505050611c07565b005b610cc5611c8e565b60405180821515815260200191505060405180910390f35b610da960048036036040811015610cf357600080fd5b8101908080359060200190640100000000811115610d1057600080fd5b820183602082011115610d2257600080fd5b80359060200191846020830284011164010000000083111715610d4457600080fd5b909192939192939080359060200190640100000000811115610d6557600080fd5b820183602082011115610d7757600080fd5b80359060200191846020830284011164010000000083111715610d9957600080fd5b9091929391929390505050611ca1565b005b610db4336119a5565b610e26576040517f08c379a00000000000000000000000000000000000000000000000000000000081526004018080602001828103825260188152602001807f676f7665726e61626c652f6f6e6c792d676f7665726e6f72000000000000000081525060200191505060405180910390fd5b610e2f81611dd3565b50565b610e3b336119a5565b80610e4b5750610e4a33611520565b5b610ea0576040517f08c379a000000000000000000000000000000000000000000000000000000000815260040180806020018281038252603481526020018061405b6034913960400191505060405180910390fd5b610ea981611eb2565b7f0c002b45a2a56ac47bbd9d9075735e7591415cfc0c3f50d947016a538e803817816040518082815260200191505060405180910390a150565b60008054906101000a900473ffffffffffffffffffffffffffffffffffffffff1681565b60126020528060005260406000206000915090505481565b6000600460019054906101000a900473ffffffffffffffffffffffffffffffffffffffff16905090565b610f52336119a5565b80610f625750610f6133611520565b5b610fb7576040517f08c379a000000000000000000000000000000000000000000000000000000000815260040180806020018281038252603481526020018061405b6034913960400191505060405180910390fd5b610fcb81600f611f1a90919063ffffffff16565b611020576040517f08c379a000000000000000000000000000000000000000000000000000000000815260040180806020018281038252602f8152602001806140b5602f913960400191505060405180910390fd5b601160008273ffffffffffffffffffffffffffffffffffffffff1673ffffffffffffffffffffffffffffffffffffffff1681526020019081526020016000206000905561107781600f611f4a90919063ffffffff16565b507f09a1db4b80c32706328728508c941a6b954f31eb5affd32f236c1fd405f8fea481604051808273ffffffffffffffffffffffffffffffffffffffff16815260200191505060405180910390a150565b6110d1336119a5565b806110e157506110e033611520565b5b611136576040517f08c379a000000000000000000000000000000000000000000000000000000000815260040180806020018281038252603481526020018061405b6034913960400191505060405180910390fd5b818190508484905014611194576040517f08c379a0000000000000000000000000000000000000000000000000000000008152600401808060200182810382526048815260200180613fe46048913960600191505060405180910390fd5b60005b848490508110156111f3576111e68585838181106111b157fe5b9050602002013573ffffffffffffffffffffffffffffffffffffffff168484848181106111da57fe5b90506020020135611f7a565b8080600101915050611197565b5050505050565b60095481565b60116020528060005260406000206000915090505481565b611221336119a5565b611293576040517f08c379a00000000000000000000000000000000000000000000000000000000081526004018080602001828103825260188152602001807f676f7665726e61626c652f6f6e6c792d676f7665726e6f72000000000000000081525060200191505060405180910390fd5b61129e83838361205c565b505050565b600c60009054906101000a900473ffffffffffffffffffffffffffffffffffffffff1681565b60006112d4826112db565b9050919050565b6000600460009054906101000a900460ff1615611360576040517f08c379a00000000000000000000000000000000000000000000000000000000081526004018080602001828103825260068152602001807f706175736564000000000000000000000000000000000000000000000000000081525060200191505060405180910390fd5b611368612284565b611373826000612777565b905061137f3382612890565b919050565b61138d336119a5565b6113ff576040517f08c379a00000000000000000000000000000000000000000000000000000000081526004018080602001828103825260188152602001807f676f7665726e61626c652f6f6e6c792d676f7665726e6f72000000000000000081525060200191505060405180910390fd5b6114088161293f565b50565b600460009054906101000a900460ff1681565b6000600460009054906101000a900460ff16156114a3576040517f08c379a00000000000000000000000000000000000000000000000000000000081526004018080602001828103825260068152602001807f706175736564000000000000000000000000000000000000000000000000000081525060200191505060405180910390fd5b6114ab612284565b6114b6826001612777565b90506114c233826129d0565b919050565b6000600560009054906101000a900473ffffffffffffffffffffffffffffffffffffffff16905090565b6103e860010281565b600660009054906101000a900473ffffffffffffffffffffffffffffffffffffffff1681565b6000600460019054906101000a900473ffffffffffffffffffffffffffffffffffffffff1673ffffffffffffffffffffffffffffffffffffffff166365834acc836040518263ffffffff1660e01b8152600401808273ffffffffffffffffffffffffffffffffffffffff16815260200191505060206040518083038186803b1580156115ab57600080fd5b505afa1580156115bf573d6000803e3d6000fd5b505050506040513d60208110156115d557600080fd5b81019080805190602001909291905050509050919050565b600b5481565b6115fc336119a5565b8061160c575061160b33611520565b5b611661576040517f08c379a000000000000000000000000000000000000000000000000000000000815260040180806020018281038252603481526020018061405b6034913960400191505060405180910390fd5b61166a81612abf565b50565b60075481565b600e60009054906101000a900473ffffffffffffffffffffffffffffffffffffffff1681565b60006116a482612b22565b9050919050565b73eeeeeeeeeeeeeeeeeeeeeeeeeeeeeeeeeeeeeeee81565b6103e881565b73c02aaa39b223fe8d0a0e5c4f27ead9083c756cc281565b6116ea336119a5565b806116fa57506116f933611520565b5b61174f576040517f08c379a000000000000000000000000000000000000000000000000000000000815260040180806020018281038252603481526020018061405b6034913960400191505060405180910390fd5b6117598282612bdd565b5050565b611766336119a5565b80611776575061177533611520565b5b6117cb576040517f08c379a000000000000000000000000000000000000000000000000000000000815260040180806020018281038252603481526020018061405b6034913960400191505060405180910390fd5b6117d58282611f7a565b5050565b60085481565b60606117eb600f612ca9565b67ffffffffffffffff8111801561180157600080fd5b506040519080825280602002602001820160405280156118305781602001602082028036833780820191505090505b50905060005b611840600f612ca9565b8110156118ae5761185b81600f612cbe90919063ffffffff16565b82828151811061186757fe5b602002602001019073ffffffffffffffffffffffffffffffffffffffff16908173ffffffffffffffffffffffffffffffffffffffff16815250508080600101915050611836565b5090565b6118bb336119a5565b806118cb57506118ca33611520565b5b611920576040517f08c379a000000000000000000000000000000000000000000000000000000000815260040180806020018281038252603481526020018061405b6034913960400191505060405180910390fd5b61192981612cd8565b7fee8d688761ac1d0fda49e2ac999f0e46b3beaf16857a8e8905aeab2987dc8d3881604051808273ffffffffffffffffffffffffffffffffffffffff16815260200191505060405180910390a150565b60135481565b600160009054906101000a900473ffffffffffffffffffffffffffffffffffffffff1681565b60008060009054906101000a900473ffffffffffffffffffffffffffffffffffffffff1673ffffffffffffffffffffffffffffffffffffffff168273ffffffffffffffffffffffffffffffffffffffff16149050919050565b600160009054906101000a900473ffffffffffffffffffffffffffffffffffffffff1673ffffffffffffffffffffffffffffffffffffffff163373ffffffffffffffffffffffffffffffffffffffff1614611ac1576040517f08c379a00000000000000000000000000000000000000000000000000000000081526004018080602001828103825260208152602001807f676f7665726e61626c652f6f6e6c792d70656e64696e672d676f7665726e6f7281525060200191505060405180910390fd5b611ac9612dc2565b565b611ad4336119a5565b611b46576040517f08c379a00000000000000000000000000000000000000000000000000000000081526004018080602001828103825260188152602001807f676f7665726e61626c652f6f6e6c792d676f7665726e6f72000000000000000081525060200191505060405180910390fd5b611b538585858585612e94565b5050505050565b611b63336119a5565b611bd5576040517f08c379a00000000000000000000000000000000000000000000000000000000081526004018080602001828103825260188152602001807f676f7665726e61626c652f6f6e6c792d676f7665726e6f72000000000000000081525060200191505060405180910390fd5b611bde81612f79565b50565b600d60009054906101000a900473ffffffffffffffffffffffffffffffffffffffff1681565b611c10336119a5565b611c82576040517f08c379a00000000000000000000000000000000000000000000000000000000081526004018080602001828103825260188152602001807f676f7665726e61626c652f6f6e6c792d676f7665726e6f72000000000000000081525060200191505060405180910390fd5b611c8b81612fbd565b50565b600a60009054906101000a900460ff1681565b611caa336119a5565b80611cba5750611cb933611520565b5b611d0f576040517f08c379a000000000000000000000000000000000000000000000000000000000815260040180806020018281038252603481526020018061405b6034913960400191505060405180910390fd5b818190508484905014611d6d576040517f08c379a000000000000000000000000000000000000000000000000000000000815260040180806020018281038252604b815260200180614228604b913960600191505060405180910390fd5b60005b84849050811015611dcc57611dbf858583818110611d8a57fe5b9050602002013573ffffffffffffffffffffffffffffffffffffffff16848484818110611db357fe5b90506020020135612bdd565b8080600101915050611d70565b5050505050565b801515600460009054906101000a900460ff1615151415611e5c576040517f08c379a00000000000000000000000000000000000000000000000000000000081526004018080602001828103825260098152602001807f6e6f2d6368616e6765000000000000000000000000000000000000000000000081525060200191505060405180910390fd5b80600460006101000a81548160ff0219169083151502179055507f0e2fb031ee032dc02d8011dc50b816eb450cf856abd8261680dac74f72165bd28160405180821515815260200191505060405180910390a150565b6103e8600102811115611f10576040517f08c379a00000000000000000000000000000000000000000000000000000000081526004018080602001828103825260428152602001806143106042913960600191505060405180910390fd5b80600b8190555050565b6000611f42836000018373ffffffffffffffffffffffffffffffffffffffff1660001b6130d4565b905092915050565b6000611f72836000018373ffffffffffffffffffffffffffffffffffffffff1660001b6130f7565b905092915050565b611f8e82600f611f1a90919063ffffffff16565b15611fe4576040517f08c379a00000000000000000000000000000000000000000000000000000000081526004018080602001828103825260308152602001806140e46030913960400191505060405180910390fd5b611fee82826131df565b7f2f564a83158ad1831793ad3e69257b52f39ece5d49cb0d8746708ecb9ef964da8282604051808373ffffffffffffffffffffffffffffffffffffffff1681526020018281526020019250505060405180910390a161205782600f61322790919063ffffffff16565b505050565b600073ffffffffffffffffffffffffffffffffffffffff168373ffffffffffffffffffffffffffffffffffffffff1614156120e2576040517f08c379a000000000000000000000000000000000000000000000000000000000815260040180806020018281038252602f81526020018061402c602f913960400191505060405180910390fd5b6120f6826002611f1a90919063ffffffff16565b1561214c576040517f08c379a000000000000000000000000000000000000000000000000000000000815260040180806020018281038252602e815260200180614149602e913960400191505060405180910390fd5b73eeeeeeeeeeeeeeeeeeeeeeeeeeeeeeeeeeeeeeee73ffffffffffffffffffffffffffffffffffffffff168273ffffffffffffffffffffffffffffffffffffffff1614156121e0578273ffffffffffffffffffffffffffffffffffffffff166108fc829081150290604051600060405180830381858888f193505050501580156121da573d6000803e3d6000fd5b5061220c565b61220b83828473ffffffffffffffffffffffffffffffffffffffff166132579092919063ffffffff16565b5b7f1e34c1aee8e83c2dcc14c21bb4bfeea7f46c0c998cb797ac7cc4d7a18f5c656b838383604051808473ffffffffffffffffffffffffffffffffffffffff1681526020018373ffffffffffffffffffffffffffffffffffffffff168152602001828152602001935050505060405180910390a1505050565b600a60009054906101000a900460ff161561231e573273ffffffffffffffffffffffffffffffffffffffff163373ffffffffffffffffffffffffffffffffffffffff161461231d576040517f08c379a000000000000000000000000000000000000000000000000000000000815260040180806020018281038252602281526020018061429c6022913960400191505060405180910390fd5b5b600060075414801561233257506000600854145b801561234057506000600954145b1561246557600560009054906101000a900473ffffffffffffffffffffffffffffffffffffffff1673ffffffffffffffffffffffffffffffffffffffff16636ba42aaa336040518263ffffffff1660e01b8152600401808273ffffffffffffffffffffffffffffffffffffffff168152602001915050602060405180830381600087803b1580156123d057600080fd5b505af11580156123e4573d6000803e3d6000fd5b505050506040513d60208110156123fa57600080fd5b8101908080519060200190929190505050612460576040517f08c379a00000000000000000000000000000000000000000000000000000000081526004018080602001828103825260298152602001806142736029913960400191505060405180910390fd5b612775565b600073ffffffffffffffffffffffffffffffffffffffff16600660009054906101000a900473ffffffffffffffffffffffffffffffffffffffff1673ffffffffffffffffffffffffffffffffffffffff1614156125fa57600560009054906101000a900473ffffffffffffffffffffffffffffffffffffffff1673ffffffffffffffffffffffffffffffffffffffff16631ff5f3da336007546008546009546040518563ffffffff1660e01b8152600401808573ffffffffffffffffffffffffffffffffffffffff168152602001848152602001838152602001828152602001945050505050602060405180830381600087803b15801561256557600080fd5b505af1158015612579573d6000803e3d6000fd5b505050506040513d602081101561258f57600080fd5b81019080805190602001909291905050506125f5576040517f08c379a000000000000000000000000000000000000000000000000000000000815260040180806020018281038252602c815260200180614177602c913960400191505060405180910390fd5b612774565b600560009054906101000a900473ffffffffffffffffffffffffffffffffffffffff1673ffffffffffffffffffffffffffffffffffffffff1663f9d46cf233600660009054906101000a900473ffffffffffffffffffffffffffffffffffffffff166007546008546009546040518663ffffffff1660e01b8152600401808673ffffffffffffffffffffffffffffffffffffffff1681526020018573ffffffffffffffffffffffffffffffffffffffff16815260200184815260200183815260200182815260200195505050505050602060405180830381600087803b1580156126e357600080fd5b505af11580156126f7573d6000803e3d6000fd5b505050506040513d602081101561270d57600080fd5b8101908080519060200190929190505050612773576040517f08c379a00000000000000000000000000000000000000000000000000000000081526004018080602001828103825260338152602001806141a36033913960400191505060405180910390fd5b5b5b565b6000805a905061278684612b22565b6127f8576040517f08c379a000000000000000000000000000000000000000000000000000000000815260040180806020018281038252601e8152602001807f56324b65657033724a6f623a3a776f726b3a6e6f742d776f726b61626c65000081525060200191505060405180910390fd5b61280184612cd8565b61280a816132f9565b91507f7c1a0f411a17a9888c10f6796bb1a765787a7ef3c95f281f8b1bc5f13975a93a84338486604051808573ffffffffffffffffffffffffffffffffffffffff1681526020018473ffffffffffffffffffffffffffffffffffffffff168152602001838152602001821515815260200194505050505060405180910390a15092915050565b600560009054906101000a900473ffffffffffffffffffffffffffffffffffffffff1673ffffffffffffffffffffffffffffffffffffffff16634b3fde2183836040518363ffffffff1660e01b8152600401808373ffffffffffffffffffffffffffffffffffffffff16815260200182815260200192505050600060405180830381600087803b15801561292357600080fd5b505af1158015612937573d6000803e3d6000fd5b505050505050565b80600560006101000a81548173ffffffffffffffffffffffffffffffffffffffff021916908373ffffffffffffffffffffffffffffffffffffffff1602179055507f0fec338132ef1fa68cd11242357e5e5e5af67dfd0c957b53ef411bca535817ef81604051808273ffffffffffffffffffffffffffffffffffffffff16815260200191505060405180910390a150565b600560009054906101000a900473ffffffffffffffffffffffffffffffffffffffff1673ffffffffffffffffffffffffffffffffffffffff16638d9acd2e600560009054906101000a900473ffffffffffffffffffffffffffffffffffffffff1684846040518463ffffffff1660e01b8152600401808473ffffffffffffffffffffffffffffffffffffffff1681526020018373ffffffffffffffffffffffffffffffffffffffff1681526020018281526020019350505050600060405180830381600087803b158015612aa357600080fd5b505af1158015612ab7573d6000803e3d6000fd5b505050505050565b60008111612b18576040517f08c379a00000000000000000000000000000000000000000000000000000000081526004018080602001828103825260318152602001806141f76031913960400191505060405180910390fd5b8060138190555050565b6000612b2d82613333565b612b3a5760009050612bd8565b6000612b4583613419565b9150508273ffffffffffffffffffffffffffffffffffffffff1663ed882c2b826040518263ffffffff1660e01b81526004018082815260200191505060206040518083038186803b158015612b9957600080fd5b505afa158015612bad573d6000803e3d6000fd5b505050506040513d6020811015612bc357600080fd5b81019080805190602001909291905050509150505b919050565b612bf182600f611f1a90919063ffffffff16565b612c46576040517f08c379a0000000000000000000000000000000000000000000000000000000008152600401808060200182810382526036815260200180613f8c6036913960400191505060405180910390fd5b612c5082826131df565b7fe4471c38177bd412e0358beccddbe74bad9465520f4f24a76c013bd404b0b0de8282604051808373ffffffffffffffffffffffffffffffffffffffff1681526020018281526020019250505060405180910390a15050565b6000612cb782600001613687565b9050919050565b6000612ccd8360000183613698565b60001c905092915050565b42601260008373ffffffffffffffffffffffffffffffffffffffff1673ffffffffffffffffffffffffffffffffffffffff16815260200190815260200160002081905550600c60009054906101000a900473ffffffffffffffffffffffffffffffffffffffff1673ffffffffffffffffffffffffffffffffffffffff16630e5c011e826040518263ffffffff1660e01b8152600401808273ffffffffffffffffffffffffffffffffffffffff168152602001915050600060405180830381600087803b158015612da757600080fd5b505af1158015612dbb573d6000803e3d6000fd5b5050505050565b600160009054906101000a900473ffffffffffffffffffffffffffffffffffffffff166000806101000a81548173ffffffffffffffffffffffffffffffffffffffff021916908373ffffffffffffffffffffffffffffffffffffffff1602179055506000600160006101000a81548173ffffffffffffffffffffffffffffffffffffffff021916908373ffffffffffffffffffffffffffffffffffffffff1602179055507f7880f0fcc848e1f26e461654b100a69f8d0641e29aa29f6596c6afadbb36b5ea60405160405180910390a1565b84600660006101000a81548173ffffffffffffffffffffffffffffffffffffffff021916908373ffffffffffffffffffffffffffffffffffffffff16021790555083600781905550826008819055508160098190555080600a60006101000a81548160ff0219169083151502179055507ec65cfa7a4df705cbfccbeeabefaa0a7015a83bc2b7380c2aba930fa3d66d458585858585604051808673ffffffffffffffffffffffffffffffffffffffff16815260200185815260200184815260200183815260200182151581526020019550505050505060405180910390a15050505050565b80600460016101000a81548173ffffffffffffffffffffffffffffffffffffffff021916908373ffffffffffffffffffffffffffffffffffffffff16021790555050565b600073ffffffffffffffffffffffffffffffffffffffff168173ffffffffffffffffffffffffffffffffffffffff161415613043576040517f08c379a00000000000000000000000000000000000000000000000000000000081526004018080602001828103825260358152602001806141146035913960400191505060405180910390fd5b80600160006101000a81548173ffffffffffffffffffffffffffffffffffffffff021916908373ffffffffffffffffffffffffffffffffffffffff1602179055507f56bddfa0cee9697cebddf9acd7f23dc6583663b05e007b877056d05017994def81604051808273ffffffffffffffffffffffffffffffffffffffff16815260200191505060405180910390a150565b600080836001016000848152602001908152602001600020541415905092915050565b600080836001016000848152602001908152602001600020549050600081146131d3576000600182039050600060018660000180549050039050600086600001828154811061314257fe5b906000526020600020015490508087600001848154811061315f57fe5b906000526020600020018190555060018301876001016000838152602001908152602001600020819055508660000180548061319757fe5b600190038181906000526020600020016000905590558660010160008781526020019081526020016000206000905560019450505050506131d9565b60009150505b92915050565b80601160008473ffffffffffffffffffffffffffffffffffffffff1673ffffffffffffffffffffffffffffffffffffffff168152602001908152602001600020819055505050565b600061324f836000018373ffffffffffffffffffffffffffffffffffffffff1660001b61371b565b905092915050565b6132f48363a9059cbb60e01b8484604051602401808373ffffffffffffffffffffffffffffffffffffffff16815260200182815260200192505050604051602081830303815290604052907bffffffffffffffffffffffffffffffffffffffffffffffffffffffff19166020820180517bffffffffffffffffffffffffffffffffffffffffffffffffffffffff838183161783525050505061378b565b505050565b600061332c6103e861331e600b546133108661387a565b6139c390919063ffffffff16565b613a4990919063ffffffff16565b9050919050565b600061334982600f611f1a90919063ffffffff16565b61339e576040517f08c379a00000000000000000000000000000000000000000000000000000000081526004018080602001828103825260288152602001806142be6028913960400191505060405180910390fd5b6000601354148061340157506133fe601354601260008573ffffffffffffffffffffffffffffffffffffffff1673ffffffffffffffffffffffffffffffffffffffff16815260200190815260200160002054613a9390919063ffffffff16565b42115b1561340f5760019050613414565b600090505b919050565b6000806000601160008573ffffffffffffffffffffffffffffffffffffffff1673ffffffffffffffffffffffffffffffffffffffff1681526020019081526020016000205414156134705760008091509150613682565b600d60009054906101000a900473ffffffffffffffffffffffffffffffffffffffff1673ffffffffffffffffffffffffffffffffffffffff1663525ea631601160008673ffffffffffffffffffffffffffffffffffffffff1673ffffffffffffffffffffffffffffffffffffffff168152602001908152602001600020546040518263ffffffff1660e01b81526004018082815260200191505060206040518083038186803b15801561352257600080fd5b505afa158015613536573d6000803e3d6000fd5b505050506040513d602081101561354c57600080fd5b81019080805190602001909291905050509150600e60009054906101000a900473ffffffffffffffffffffffffffffffffffffffff1673ffffffffffffffffffffffffffffffffffffffff1663a75d39c2600560009054906101000a900473ffffffffffffffffffffffffffffffffffffffff168473c02aaa39b223fe8d0a0e5c4f27ead9083c756cc26040518463ffffffff1660e01b8152600401808473ffffffffffffffffffffffffffffffffffffffff1681526020018381526020018273ffffffffffffffffffffffffffffffffffffffff168152602001935050505060206040518083038186803b15801561364457600080fd5b505afa158015613658573d6000803e3d6000fd5b505050506040513d602081101561366e57600080fd5b810190808051906020019092919050505090505b915091565b600081600001805490509050919050565b6000818360000180549050116136f9576040517f08c379a0000000000000000000000000000000000000000000000000000000008152600401808060200182810382526022815260200180613fc26022913960400191505060405180910390fd5b82600001828154811061370857fe5b9060005260206000200154905092915050565b600061372783836130d4565b613780578260000182908060018154018082558091505060019003906000526020600020016000909190919091505582600001805490508360010160008481526020019081526020016000208190555060019050613785565b600090505b92915050565b60606137ed826040518060400160405280602081526020017f5361666545524332303a206c6f772d6c6576656c2063616c6c206661696c65648152508573ffffffffffffffffffffffffffffffffffffffff16613b1b9092919063ffffffff16565b90506000815111156138755780806020019051602081101561380e57600080fd5b8101908080519060200190929190505050613874576040517f08c379a000000000000000000000000000000000000000000000000000000000815260040180806020018281038252602a8152602001806142e6602a913960400191505060405180910390fd5b5b505050565b6000600560009054906101000a900473ffffffffffffffffffffffffffffffffffffffff1673ffffffffffffffffffffffffffffffffffffffff166309aff02b6040518163ffffffff1660e01b815260040160206040518083038186803b1580156138e457600080fd5b505afa1580156138f8573d6000803e3d6000fd5b505050506040513d602081101561390e57600080fd5b810190808051906020019092919050505073ffffffffffffffffffffffffffffffffffffffff1663525ea63161394d5a85613b3390919063ffffffff16565b6040518263ffffffff1660e01b81526004018082815260200191505060206040518083038186803b15801561398157600080fd5b505afa158015613995573d6000803e3d6000fd5b505050506040513d60208110156139ab57600080fd5b81019080805190602001909291905050509050919050565b6000808314156139d65760009050613a43565b60008284029050828482816139e757fe5b0414613a3e576040517f08c379a00000000000000000000000000000000000000000000000000000000081526004018080602001828103825260218152602001806141d66021913960400191505060405180910390fd5b809150505b92915050565b6000613a8b83836040518060400160405280601a81526020017f536166654d6174683a206469766973696f6e206279207a65726f000000000000815250613b7d565b905092915050565b600080828401905083811015613b11576040517f08c379a000000000000000000000000000000000000000000000000000000000815260040180806020018281038252601b8152602001807f536166654d6174683a206164646974696f6e206f766572666c6f77000000000081525060200191505060405180910390fd5b8091505092915050565b6060613b2a8484600085613c43565b90509392505050565b6000613b7583836040518060400160405280601e81526020017f536166654d6174683a207375627472616374696f6e206f766572666c6f770000815250613dec565b905092915050565b60008083118290613c29576040517f08c379a00000000000000000000000000000000000000000000000000000000081526004018080602001828103825283818151815260200191508051906020019080838360005b83811015613bee578082015181840152602081019050613bd3565b50505050905090810190601f168015613c1b5780820380516001836020036101000a031916815260200191505b509250505060405180910390fd5b506000838581613c3557fe5b049050809150509392505050565b606082471015613c9e576040517f08c379a000000000000000000000000000000000000000000000000000000000815260040180806020018281038252602681526020018061408f6026913960400191505060405180910390fd5b613ca785613eac565b613d19576040517f08c379a000000000000000000000000000000000000000000000000000000000815260040180806020018281038252601d8152602001807f416464726573733a2063616c6c20746f206e6f6e2d636f6e747261637400000081525060200191505060405180910390fd5b600060608673ffffffffffffffffffffffffffffffffffffffff1685876040518082805190602001908083835b60208310613d695780518252602082019150602081019050602083039250613d46565b6001836020036101000a03801982511681845116808217855250505050505090500191505060006040518083038185875af1925050503d8060008114613dcb576040519150601f19603f3d011682016040523d82523d6000602084013e613dd0565b606091505b5091509150613de0828286613ebf565b92505050949350505050565b6000838311158290613e99576040517f08c379a00000000000000000000000000000000000000000000000000000000081526004018080602001828103825283818151815260200191508051906020019080838360005b83811015613e5e578082015181840152602081019050613e43565b50505050905090810190601f168015613e8b5780820380516001836020036101000a031916815260200191505b509250505060405180910390fd5b5060008385039050809150509392505050565b600080823b905060008111915050919050565b60608315613ecf57829050613f84565b600083511115613ee25782518084602001fd5b816040517f08c379a00000000000000000000000000000000000000000000000000000000081526004018080602001828103825283818151815260200191508051906020019080838360005b83811015613f49578082015181840152602081019050613f2e565b50505050905090810190601f168015613f765780820380516001836020036101000a031916815260200191505b509250505060405180910390fd5b939250505056fe56324b65657033724a6f623a3a7570646174652d72657175697265642d616d6f756e743a73747261746567792d6e6f742d6164646564456e756d657261626c655365743a20696e646578206f7574206f6620626f756e647356324b65657033724a6f623a3a6164642d737472617465676965733a737472617465676965732d72657175697265642d616d6f756e74732d646966666572656e742d6c656e677468636f6c6c65637461626c652d647573742f63616e742d73656e642d647573742d746f2d7a65726f2d616464726573734d616368696e6572793a3a6f6e6c79476f7665726e6f724f724d656368616e69633a696e76616c69642d6d73672d73656e646572416464726573733a20696e73756666696369656e742062616c616e636520666f722063616c6c56324b65657033724a6f623a3a72656d6f76652d73747261746567793a73747261746567792d6e6f742d616464656456324b65657033724a6f623a3a6164642d73747261746567793a73747261746567792d616c72656164792d6164646564676f7665726e61626c652f70656e64696e672d676f7665726e6f722d73686f756c642d6e6f742d62652d7a65726f2d616464726573636f6c6c65637461626c652d647573742f746f6b656e2d69732d706172742d6f662d7468652d70726f746f636f6c6b65657033723a3a69734b65657065723a6b65657065722d6e6f742d6d696e2d726571756972656d656e74736b65657033723a3a69734b65657065723a6b65657065722d6e6f742d637573746f6d2d6d696e2d726571756972656d656e7473536166654d6174683a206d756c7469706c69636174696f6e206f766572666c6f7756324b65657033724a6f623a3a7365742d776f726b2d636f6f6c646f776e3a73686f756c642d6e6f742d62652d7a65726f56324b65657033724a6f623a3a7570646174652d737472617465676965733a737472617465676965732d72657175697265642d616d6f756e74732d646966666572656e742d6c656e6774686b65657033723a3a69734b65657065723a6b65657065722d69732d6e6f742d726567697374657265646b65657033723a3a69734b65657065723a6b65657065722d69732d6e6f742d656f6156324b65657033724a6f623a3a776f726b61626c653a73747261746567792d6e6f742d61646465645361666545524332303a204552433230206f7065726174696f6e20646964206e6f74207375636365656443727653747261746567794b65657033724a6f623a3a7365742d7265776172642d6d756c7469706c6965723a6d756c7469706c6965722d657863656564732d6d6178a164736f6c634300060c000a56324b65657033724a6f623a3a7365742d776f726b2d636f6f6c646f776e3a73686f756c642d6e6f742d62652d7a65726f676f7665726e61626c652f676f7665726e6f722d73686f756c642d6e6f742d62652d7a65726f2d61646472657373",
  "linkReferences": {},
  "deployedLinkReferences": {}
}