{
  "_format": "hh-sol-artifact-1",
  "contractName": "V2Keeper",
  "sourceName": "contracts/jobs/v2/V2Keeper.sol",
  "abi": [
    {
      "inputs": [
        {
          "internalType": "address",
          "name": "_mechanicsRegistry",
          "type": "address"
        }
      ],
      "stateMutability": "nonpayable",
      "type": "constructor"
    },
    {
      "anonymous": false,
      "inputs": [
        {
          "indexed": false,
          "internalType": "address",
          "name": "_to",
          "type": "address"
        },
        {
          "indexed": false,
          "internalType": "address",
          "name": "token",
          "type": "address"
        },
        {
          "indexed": false,
          "internalType": "uint256",
          "name": "amount",
          "type": "uint256"
        }
      ],
      "name": "DustSent",
      "type": "event"
    },
    {
      "anonymous": false,
      "inputs": [],
      "name": "GovernorAccepted",
      "type": "event"
    },
    {
      "anonymous": false,
      "inputs": [
        {
          "indexed": false,
          "internalType": "address",
          "name": "_job",
          "type": "address"
        }
      ],
      "name": "JobAdded",
      "type": "event"
    },
    {
      "anonymous": false,
      "inputs": [
        {
          "indexed": false,
          "internalType": "address",
          "name": "_job",
          "type": "address"
        }
      ],
      "name": "JobRemoved",
      "type": "event"
    },
    {
      "anonymous": false,
      "inputs": [
        {
          "indexed": false,
          "internalType": "bool",
          "name": "_paused",
          "type": "bool"
        }
      ],
      "name": "Paused",
      "type": "event"
    },
    {
      "anonymous": false,
      "inputs": [
        {
          "indexed": false,
          "internalType": "address",
          "name": "pendingGovernor",
          "type": "address"
        }
      ],
      "name": "PendingGovernorSet",
      "type": "event"
    },
    {
      "inputs": [],
      "name": "ETH_ADDRESS",
      "outputs": [
        {
          "internalType": "address",
          "name": "",
          "type": "address"
        }
      ],
      "stateMutability": "view",
      "type": "function"
    },
    {
      "inputs": [],
      "name": "acceptGovernor",
      "outputs": [],
      "stateMutability": "nonpayable",
      "type": "function"
    },
    {
      "inputs": [
        {
          "internalType": "address",
          "name": "_job",
          "type": "address"
        }
      ],
      "name": "addJob",
      "outputs": [],
      "stateMutability": "nonpayable",
      "type": "function"
    },
    {
      "inputs": [
        {
          "internalType": "address[]",
          "name": "_jobs",
          "type": "address[]"
        }
      ],
      "name": "addJobs",
      "outputs": [],
      "stateMutability": "nonpayable",
      "type": "function"
    },
    {
      "inputs": [],
      "name": "governor",
      "outputs": [
        {
          "internalType": "address",
          "name": "",
          "type": "address"
        }
      ],
      "stateMutability": "view",
      "type": "function"
    },
    {
      "inputs": [
        {
          "internalType": "address",
          "name": "_strategy",
          "type": "address"
        }
      ],
      "name": "harvest",
      "outputs": [],
      "stateMutability": "nonpayable",
      "type": "function"
    },
    {
      "inputs": [
        {
          "internalType": "address",
          "name": "_account",
          "type": "address"
        }
      ],
      "name": "isGovernor",
      "outputs": [
        {
          "internalType": "bool",
          "name": "_isGovernor",
          "type": "bool"
        }
      ],
      "stateMutability": "view",
      "type": "function"
    },
    {
      "inputs": [
        {
          "internalType": "address",
          "name": "_mechanic",
          "type": "address"
        }
      ],
      "name": "isMechanic",
      "outputs": [
        {
          "internalType": "bool",
          "name": "_isMechanic",
          "type": "bool"
        }
      ],
      "stateMutability": "view",
      "type": "function"
    },
    {
      "inputs": [],
      "name": "jobs",
      "outputs": [
        {
          "internalType": "address[]",
          "name": "_jobs",
          "type": "address[]"
        }
      ],
      "stateMutability": "view",
      "type": "function"
    },
    {
      "inputs": [],
      "name": "mechanicsRegistry",
      "outputs": [
        {
          "internalType": "address",
          "name": "_mechanicRegistry",
          "type": "address"
        }
      ],
      "stateMutability": "view",
      "type": "function"
    },
    {
      "inputs": [
        {
          "internalType": "bool",
          "name": "_paused",
          "type": "bool"
        }
      ],
      "name": "pause",
      "outputs": [],
      "stateMutability": "nonpayable",
      "type": "function"
    },
    {
      "inputs": [],
      "name": "paused",
      "outputs": [
        {
          "internalType": "bool",
          "name": "",
          "type": "bool"
        }
      ],
      "stateMutability": "view",
      "type": "function"
    },
    {
      "inputs": [],
      "name": "pendingGovernor",
      "outputs": [
        {
          "internalType": "address",
          "name": "",
          "type": "address"
        }
      ],
      "stateMutability": "view",
      "type": "function"
    },
    {
      "inputs": [
        {
          "internalType": "address",
          "name": "_job",
          "type": "address"
        }
      ],
      "name": "removeJob",
      "outputs": [],
      "stateMutability": "nonpayable",
      "type": "function"
    },
    {
      "inputs": [
        {
          "internalType": "address",
          "name": "_to",
          "type": "address"
        },
        {
          "internalType": "address",
          "name": "_token",
          "type": "address"
        },
        {
          "internalType": "uint256",
          "name": "_amount",
          "type": "uint256"
        }
      ],
      "name": "sendDust",
      "outputs": [],
      "stateMutability": "nonpayable",
      "type": "function"
    },
    {
      "inputs": [
        {
          "internalType": "address",
          "name": "_mechanicsRegistry",
          "type": "address"
        }
      ],
      "name": "setMechanicsRegistry",
      "outputs": [],
      "stateMutability": "nonpayable",
      "type": "function"
    },
    {
      "inputs": [
        {
          "internalType": "address",
          "name": "_pendingGovernor",
          "type": "address"
        }
      ],
      "name": "setPendingGovernor",
      "outputs": [],
      "stateMutability": "nonpayable",
      "type": "function"
    },
    {
      "inputs": [
        {
          "internalType": "address",
          "name": "_strategy",
          "type": "address"
        }
      ],
      "name": "tend",
      "outputs": [],
      "stateMutability": "nonpayable",
      "type": "function"
    }
  ],
  "bytecode": "0x608060405234801561001057600080fd5b50604051611eb2380380611eb28339818101604052602081101561003357600080fd5b8101908080519060200190929190505050808033600073ffffffffffffffffffffffffffffffffffffffff168173ffffffffffffffffffffffffffffffffffffffff1614156100cd576040517f08c379a000000000000000000000000000000000000000000000000000000000815260040180806020018281038252602e815260200180611e84602e913960400191505060405180910390fd5b806000806101000a81548173ffffffffffffffffffffffffffffffffffffffff021916908373ffffffffffffffffffffffffffffffffffffffff1602179055505061011d8161012560201b60201c565b505050610169565b80600460016101000a81548173ffffffffffffffffffffffffffffffffffffffff021916908373ffffffffffffffffffffffffffffffffffffffff16021790555050565b611d0c806101786000396000f3fe608060405234801561001057600080fd5b50600436106101165760003560e01c806380711989116100a2578063e3056a3411610071578063e3056a34146104b7578063e43581b8146104eb578063e58bb63914610545578063ef47da6d1461054f578063f235757f1461059357610116565b806380711989146103b7578063a734f06e146103fb578063c5198abc1461042f578063d6d2dcf91461047357610116565b80632db8c129116100e95780632db8c129146101f75780635c975abb1461026557806365834acc146102855780636d947b87146102df5780637c8fce231461035857610116565b806302329a291461011b5780630c340a241461014b5780630e5c011e1461017f5780631078f388146101c3575b600080fd5b6101496004803603602081101561013157600080fd5b810190808035151590602001909291905050506105d7565b005b61015361065e565b604051808273ffffffffffffffffffffffffffffffffffffffff16815260200191505060405180910390f35b6101c16004803603602081101561019557600080fd5b81019080803573ffffffffffffffffffffffffffffffffffffffff169060200190929190505050610682565b005b6101cb61074e565b604051808273ffffffffffffffffffffffffffffffffffffffff16815260200191505060405180910390f35b6102636004803603606081101561020d57600080fd5b81019080803573ffffffffffffffffffffffffffffffffffffffff169060200190929190803573ffffffffffffffffffffffffffffffffffffffff16906020019092919080359060200190929190505050610778565b005b61026d610803565b60405180821515815260200191505060405180910390f35b6102c76004803603602081101561029b57600080fd5b81019080803573ffffffffffffffffffffffffffffffffffffffff169060200190929190505050610816565b60405180821515815260200191505060405180910390f35b610356600480360360208110156102f557600080fd5b810190808035906020019064010000000081111561031257600080fd5b82018360208201111561032457600080fd5b8035906020019184602083028401116401000000008311171561034657600080fd5b90919293919293905050506108e3565b005b6103606109a2565b6040518080602001828103825283818151815260200191508051906020019060200280838360005b838110156103a3578082015181840152602081019050610388565b505050509050019250505060405180910390f35b6103f9600480360360208110156103cd57600080fd5b81019080803573ffffffffffffffffffffffffffffffffffffffff169060200190929190505050610a75565b005b610403610b48565b604051808273ffffffffffffffffffffffffffffffffffffffff16815260200191505060405180910390f35b6104716004803603602081101561044557600080fd5b81019080803573ffffffffffffffffffffffffffffffffffffffff169060200190929190505050610b60565b005b6104b56004803603602081101561048957600080fd5b81019080803573ffffffffffffffffffffffffffffffffffffffff169060200190929190505050610bda565b005b6104bf610ca6565b604051808273ffffffffffffffffffffffffffffffffffffffff16815260200191505060405180910390f35b61052d6004803603602081101561050157600080fd5b81019080803573ffffffffffffffffffffffffffffffffffffffff169060200190929190505050610ccc565b60405180821515815260200191505060405180910390f35b61054d610d25565b005b6105916004803603602081101561056557600080fd5b81019080803573ffffffffffffffffffffffffffffffffffffffff169060200190929190505050610df2565b005b6105d5600480360360208110156105a957600080fd5b81019080803573ffffffffffffffffffffffffffffffffffffffff169060200190929190505050610e79565b005b6105e033610ccc565b610652576040517f08c379a00000000000000000000000000000000000000000000000000000000081526004018080602001828103825260188152602001807f676f7665726e61626c652f6f6e6c792d676f7665726e6f72000000000000000081525060200191505060405180910390fd5b61065b81610f00565b50565b60008054906101000a900473ffffffffffffffffffffffffffffffffffffffff1681565b610696336005610fdf90919063ffffffff16565b6106eb576040517f08c379a000000000000000000000000000000000000000000000000000000000815260040180806020018281038252602f815260200180611cd1602f913960400191505060405180910390fd5b8073ffffffffffffffffffffffffffffffffffffffff16634641257d6040518163ffffffff1660e01b8152600401600060405180830381600087803b15801561073357600080fd5b505af1158015610747573d6000803e3d6000fd5b5050505050565b6000600460019054906101000a900473ffffffffffffffffffffffffffffffffffffffff16905090565b61078133610ccc565b6107f3576040517f08c379a00000000000000000000000000000000000000000000000000000000081526004018080602001828103825260188152602001807f676f7665726e61626c652f6f6e6c792d676f7665726e6f72000000000000000081525060200191505060405180910390fd5b6107fe83838361100f565b505050565b600460009054906101000a900460ff1681565b6000600460019054906101000a900473ffffffffffffffffffffffffffffffffffffffff1673ffffffffffffffffffffffffffffffffffffffff166365834acc836040518263ffffffff1660e01b8152600401808273ffffffffffffffffffffffffffffffffffffffff16815260200191505060206040518083038186803b1580156108a157600080fd5b505afa1580156108b5573d6000803e3d6000fd5b505050506040513d60208110156108cb57600080fd5b81019080805190602001909291905050509050919050565b6108ec33610ccc565b806108fc57506108fb33610816565b5b610951576040517f08c379a0000000000000000000000000000000000000000000000000000000008152600401808060200182810382526034815260200180611bea6034913960400191505060405180910390fd5b60005b8282905081101561099d5761099083838381811061096e57fe5b9050602002013573ffffffffffffffffffffffffffffffffffffffff16611237565b8080600101915050610954565b505050565b60606109ae600561129c565b67ffffffffffffffff811180156109c457600080fd5b506040519080825280602002602001820160405280156109f35781602001602082028036833780820191505090505b50905060005b610a03600561129c565b811015610a7157610a1e8160056112b190919063ffffffff16565b828281518110610a2a57fe5b602002602001019073ffffffffffffffffffffffffffffffffffffffff16908173ffffffffffffffffffffffffffffffffffffffff168152505080806001019150506109f9565b5090565b610a7e33610ccc565b80610a8e5750610a8d33610816565b5b610ae3576040517f08c379a0000000000000000000000000000000000000000000000000000000008152600401808060200182810382526034815260200180611bea6034913960400191505060405180910390fd5b610af78160056112cb90919063ffffffff16565b507f2e30995f6d0a4025df119470b0e467d02c862196c7f014b6d8a50d2c5dbe4d5081604051808273ffffffffffffffffffffffffffffffffffffffff16815260200191505060405180910390a150565b73eeeeeeeeeeeeeeeeeeeeeeeeeeeeeeeeeeeeeeee81565b610b6933610ccc565b80610b795750610b7833610816565b5b610bce576040517f08c379a0000000000000000000000000000000000000000000000000000000008152600401808060200182810382526034815260200180611bea6034913960400191505060405180910390fd5b610bd781611237565b50565b610bee336005610fdf90919063ffffffff16565b610c43576040517f08c379a000000000000000000000000000000000000000000000000000000000815260040180806020018281038252602f815260200180611cd1602f913960400191505060405180910390fd5b8073ffffffffffffffffffffffffffffffffffffffff1663440368a36040518163ffffffff1660e01b8152600401600060405180830381600087803b158015610c8b57600080fd5b505af1158015610c9f573d6000803e3d6000fd5b5050505050565b600160009054906101000a900473ffffffffffffffffffffffffffffffffffffffff1681565b60008060009054906101000a900473ffffffffffffffffffffffffffffffffffffffff1673ffffffffffffffffffffffffffffffffffffffff168273ffffffffffffffffffffffffffffffffffffffff16149050919050565b600160009054906101000a900473ffffffffffffffffffffffffffffffffffffffff1673ffffffffffffffffffffffffffffffffffffffff163373ffffffffffffffffffffffffffffffffffffffff1614610de8576040517f08c379a00000000000000000000000000000000000000000000000000000000081526004018080602001828103825260208152602001807f676f7665726e61626c652f6f6e6c792d70656e64696e672d676f7665726e6f7281525060200191505060405180910390fd5b610df06112fb565b565b610dfb33610ccc565b610e6d576040517f08c379a00000000000000000000000000000000000000000000000000000000081526004018080602001828103825260188152602001807f676f7665726e61626c652f6f6e6c792d676f7665726e6f72000000000000000081525060200191505060405180910390fd5b610e76816113cd565b50565b610e8233610ccc565b610ef4576040517f08c379a00000000000000000000000000000000000000000000000000000000081526004018080602001828103825260188152602001807f676f7665726e61626c652f6f6e6c792d676f7665726e6f72000000000000000081525060200191505060405180910390fd5b610efd81611411565b50565b801515600460009054906101000a900460ff1615151415610f89576040517f08c379a00000000000000000000000000000000000000000000000000000000081526004018080602001828103825260098152602001807f6e6f2d6368616e6765000000000000000000000000000000000000000000000081525060200191505060405180910390fd5b80600460006101000a81548160ff0219169083151502179055507f0e2fb031ee032dc02d8011dc50b816eb450cf856abd8261680dac74f72165bd28160405180821515815260200191505060405180910390a150565b6000611007836000018373ffffffffffffffffffffffffffffffffffffffff1660001b611528565b905092915050565b600073ffffffffffffffffffffffffffffffffffffffff168373ffffffffffffffffffffffffffffffffffffffff161415611095576040517f08c379a000000000000000000000000000000000000000000000000000000000815260040180806020018281038252602f815260200180611bbb602f913960400191505060405180910390fd5b6110a9826002610fdf90919063ffffffff16565b156110ff576040517f08c379a000000000000000000000000000000000000000000000000000000000815260040180806020018281038252602e815260200180611c79602e913960400191505060405180910390fd5b73eeeeeeeeeeeeeeeeeeeeeeeeeeeeeeeeeeeeeeee73ffffffffffffffffffffffffffffffffffffffff168273ffffffffffffffffffffffffffffffffffffffff161415611193578273ffffffffffffffffffffffffffffffffffffffff166108fc829081150290604051600060405180830381858888f1935050505015801561118d573d6000803e3d6000fd5b506111bf565b6111be83828473ffffffffffffffffffffffffffffffffffffffff1661154b9092919063ffffffff16565b5b7f1e34c1aee8e83c2dcc14c21bb4bfeea7f46c0c998cb797ac7cc4d7a18f5c656b838383604051808473ffffffffffffffffffffffffffffffffffffffff1681526020018373ffffffffffffffffffffffffffffffffffffffff168152602001828152602001935050505060405180910390a1505050565b61124b8160056115ed90919063ffffffff16565b507feba6ddca5c62ea570ec45f4eb13b706a7f0fe326c325b6917a2ae62ebd00451981604051808273ffffffffffffffffffffffffffffffffffffffff16815260200191505060405180910390a150565b60006112aa8260000161161d565b9050919050565b60006112c0836000018361162e565b60001c905092915050565b60006112f3836000018373ffffffffffffffffffffffffffffffffffffffff1660001b6116b1565b905092915050565b600160009054906101000a900473ffffffffffffffffffffffffffffffffffffffff166000806101000a81548173ffffffffffffffffffffffffffffffffffffffff021916908373ffffffffffffffffffffffffffffffffffffffff1602179055506000600160006101000a81548173ffffffffffffffffffffffffffffffffffffffff021916908373ffffffffffffffffffffffffffffffffffffffff1602179055507f7880f0fcc848e1f26e461654b100a69f8d0641e29aa29f6596c6afadbb36b5ea60405160405180910390a1565b80600460016101000a81548173ffffffffffffffffffffffffffffffffffffffff021916908373ffffffffffffffffffffffffffffffffffffffff16021790555050565b600073ffffffffffffffffffffffffffffffffffffffff168173ffffffffffffffffffffffffffffffffffffffff161415611497576040517f08c379a0000000000000000000000000000000000000000000000000000000008152600401808060200182810382526035815260200180611c446035913960400191505060405180910390fd5b80600160006101000a81548173ffffffffffffffffffffffffffffffffffffffff021916908373ffffffffffffffffffffffffffffffffffffffff1602179055507f56bddfa0cee9697cebddf9acd7f23dc6583663b05e007b877056d05017994def81604051808273ffffffffffffffffffffffffffffffffffffffff16815260200191505060405180910390a150565b600080836001016000848152602001908152602001600020541415905092915050565b6115e88363a9059cbb60e01b8484604051602401808373ffffffffffffffffffffffffffffffffffffffff16815260200182815260200192505050604051602081830303815290604052907bffffffffffffffffffffffffffffffffffffffffffffffffffffffff19166020820180517bffffffffffffffffffffffffffffffffffffffffffffffffffffffff8381831617835250505050611799565b505050565b6000611615836000018373ffffffffffffffffffffffffffffffffffffffff1660001b611888565b905092915050565b600081600001805490509050919050565b60008183600001805490501161168f576040517f08c379a0000000000000000000000000000000000000000000000000000000008152600401808060200182810382526022815260200180611b996022913960400191505060405180910390fd5b82600001828154811061169e57fe5b9060005260206000200154905092915050565b6000808360010160008481526020019081526020016000205490506000811461178d57600060018203905060006001866000018054905003905060008660000182815481106116fc57fe5b906000526020600020015490508087600001848154811061171957fe5b906000526020600020018190555060018301876001016000838152602001908152602001600020819055508660000180548061175157fe5b60019003818190600052602060002001600090559055866001016000878152602001908152602001600020600090556001945050505050611793565b60009150505b92915050565b60606117fb826040518060400160405280602081526020017f5361666545524332303a206c6f772d6c6576656c2063616c6c206661696c65648152508573ffffffffffffffffffffffffffffffffffffffff166118f89092919063ffffffff16565b90506000815111156118835780806020019051602081101561181c57600080fd5b8101908080519060200190929190505050611882576040517f08c379a000000000000000000000000000000000000000000000000000000000815260040180806020018281038252602a815260200180611ca7602a913960400191505060405180910390fd5b5b505050565b60006118948383611528565b6118ed5782600001829080600181540180825580915050600190039060005260206000200160009091909190915055826000018054905083600101600084815260200190815260200160002081905550600190506118f2565b600090505b92915050565b60606119078484600085611910565b90509392505050565b60608247101561196b576040517f08c379a0000000000000000000000000000000000000000000000000000000008152600401808060200182810382526026815260200180611c1e6026913960400191505060405180910390fd5b61197485611ab9565b6119e6576040517f08c379a000000000000000000000000000000000000000000000000000000000815260040180806020018281038252601d8152602001807f416464726573733a2063616c6c20746f206e6f6e2d636f6e747261637400000081525060200191505060405180910390fd5b600060608673ffffffffffffffffffffffffffffffffffffffff1685876040518082805190602001908083835b60208310611a365780518252602082019150602081019050602083039250611a13565b6001836020036101000a03801982511681845116808217855250505050505090500191505060006040518083038185875af1925050503d8060008114611a98576040519150601f19603f3d011682016040523d82523d6000602084013e611a9d565b606091505b5091509150611aad828286611acc565b92505050949350505050565b600080823b905060008111915050919050565b60608315611adc57829050611b91565b600083511115611aef5782518084602001fd5b816040517f08c379a00000000000000000000000000000000000000000000000000000000081526004018080602001828103825283818151815260200191508051906020019080838360005b83811015611b56578082015181840152602081019050611b3b565b50505050905090810190601f168015611b835780820380516001836020036101000a031916815260200191505b509250505060405180910390fd5b939250505056fe456e756d657261626c655365743a20696e646578206f7574206f6620626f756e6473636f6c6c65637461626c652d647573742f63616e742d73656e642d647573742d746f2d7a65726f2d616464726573734d616368696e6572793a3a6f6e6c79476f7665726e6f724f724d656368616e69633a696e76616c69642d6d73672d73656e646572416464726573733a20696e73756666696369656e742062616c616e636520666f722063616c6c676f7665726e61626c652f70656e64696e672d676f7665726e6f722d73686f756c642d6e6f742d62652d7a65726f2d616464726573636f6c6c65637461626c652d647573742f746f6b656e2d69732d706172742d6f662d7468652d70726f746f636f6c5361666545524332303a204552433230206f7065726174696f6e20646964206e6f74207375636365656456324b65657065723a3a6f6e6c7956616c69644a6f623a6d73672d73656e6465722d6e6f742d76616c69642d6a6f62a164736f6c634300060c000a676f7665726e61626c652f676f7665726e6f722d73686f756c642d6e6f742d62652d7a65726f2d61646472657373",
  "linkReferences": {},
  "deployedLinkReferences": {}
}