{
  "_format": "hh-sol-artifact-1",
  "contractName": "VaultKeep3rJob",
  "sourceName": "contracts/jobs/VaultKeep3rJob.sol",
  "abi": [
    {
      "inputs": [
        {
          "internalType": "address",
          "name": "_mechanicsRegistry",
          "type": "address"
        },
        {
          "internalType": "address",
          "name": "_keep3r",
          "type": "address"
        },
        {
          "internalType": "address",
          "name": "_bond",
          "type": "address"
        },
        {
          "internalType": "uint256",
          "name": "_minBond",
          "type": "uint256"
        },
        {
          "internalType": "uint256",
          "name": "_earned",
          "type": "uint256"
        },
        {
          "internalType": "uint256",
          "name": "_age",
          "type": "uint256"
        },
        {
          "internalType": "bool",
          "name": "_onlyEOA",
          "type": "bool"
        },
        {
          "internalType": "uint256",
          "name": "_earnCooldown",
          "type": "uint256"
        },
        {
          "internalType": "uint256",
          "name": "_maxGasPrice",
          "type": "uint256"
        }
      ],
      "stateMutability": "nonpayable",
      "type": "constructor"
    },
    {
      "anonymous": false,
      "inputs": [
        {
          "indexed": false,
          "internalType": "address",
          "name": "_to",
          "type": "address"
        },
        {
          "indexed": false,
          "internalType": "address",
          "name": "token",
          "type": "address"
        },
        {
          "indexed": false,
          "internalType": "uint256",
          "name": "amount",
          "type": "uint256"
        }
      ],
      "name": "DustSent",
      "type": "event"
    },
    {
      "anonymous": false,
      "inputs": [
        {
          "indexed": false,
          "internalType": "address",
          "name": "_vault",
          "type": "address"
        }
      ],
      "name": "ForceWorked",
      "type": "event"
    },
    {
      "anonymous": false,
      "inputs": [],
      "name": "GovernorAccepted",
      "type": "event"
    },
    {
      "anonymous": false,
      "inputs": [
        {
          "indexed": false,
          "internalType": "address",
          "name": "_bond",
          "type": "address"
        },
        {
          "indexed": false,
          "internalType": "uint256",
          "name": "_minBond",
          "type": "uint256"
        },
        {
          "indexed": false,
          "internalType": "uint256",
          "name": "_earned",
          "type": "uint256"
        },
        {
          "indexed": false,
          "internalType": "uint256",
          "name": "_age",
          "type": "uint256"
        },
        {
          "indexed": false,
          "internalType": "bool",
          "name": "_onlyEOA",
          "type": "bool"
        }
      ],
      "name": "Keep3rRequirementsSet",
      "type": "event"
    },
    {
      "anonymous": false,
      "inputs": [
        {
          "indexed": false,
          "internalType": "address",
          "name": "_keep3r",
          "type": "address"
        }
      ],
      "name": "Keep3rSet",
      "type": "event"
    },
    {
      "anonymous": false,
      "inputs": [
        {
          "indexed": false,
          "internalType": "bool",
          "name": "_paused",
          "type": "bool"
        }
      ],
      "name": "Paused",
      "type": "event"
    },
    {
      "anonymous": false,
      "inputs": [
        {
          "indexed": false,
          "internalType": "address",
          "name": "pendingGovernor",
          "type": "address"
        }
      ],
      "name": "PendingGovernorSet",
      "type": "event"
    },
    {
      "anonymous": false,
      "inputs": [
        {
          "indexed": false,
          "internalType": "uint256",
          "name": "_maxGasPrice",
          "type": "uint256"
        }
      ],
      "name": "SetMaxGasPrice",
      "type": "event"
    },
    {
      "anonymous": false,
      "inputs": [
        {
          "indexed": false,
          "internalType": "uint256",
          "name": "_rewardMultiplier",
          "type": "uint256"
        }
      ],
      "name": "SetRewardMultiplier",
      "type": "event"
    },
    {
      "anonymous": false,
      "inputs": [
        {
          "indexed": false,
          "internalType": "address",
          "name": "_vault",
          "type": "address"
        },
        {
          "indexed": false,
          "internalType": "uint256",
          "name": "_requiredEarn",
          "type": "uint256"
        }
      ],
      "name": "VaultAdded",
      "type": "event"
    },
    {
      "anonymous": false,
      "inputs": [
        {
          "indexed": false,
          "internalType": "address",
          "name": "_vault",
          "type": "address"
        },
        {
          "indexed": false,
          "internalType": "uint256",
          "name": "_requiredEarn",
          "type": "uint256"
        }
      ],
      "name": "VaultModified",
      "type": "event"
    },
    {
      "anonymous": false,
      "inputs": [
        {
          "indexed": false,
          "internalType": "address",
          "name": "_vault",
          "type": "address"
        }
      ],
      "name": "VaultRemoved",
      "type": "event"
    },
    {
      "anonymous": false,
      "inputs": [
        {
          "indexed": false,
          "internalType": "address",
          "name": "_vault",
          "type": "address"
        },
        {
          "indexed": false,
          "internalType": "address",
          "name": "_keeper",
          "type": "address"
        },
        {
          "indexed": false,
          "internalType": "uint256",
          "name": "_credits",
          "type": "uint256"
        },
        {
          "indexed": false,
          "internalType": "bool",
          "name": "_workForTokens",
          "type": "bool"
        }
      ],
      "name": "Worked",
      "type": "event"
    },
    {
      "inputs": [],
      "name": "ETH_ADDRESS",
      "outputs": [
        {
          "internalType": "address",
          "name": "",
          "type": "address"
        }
      ],
      "stateMutability": "view",
      "type": "function"
    },
    {
      "inputs": [],
      "name": "FASTGAS",
      "outputs": [
        {
          "internalType": "contract IChainLinkFeed",
          "name": "",
          "type": "address"
        }
      ],
      "stateMutability": "view",
      "type": "function"
    },
    {
      "inputs": [],
      "name": "MAX_REWARD_MULTIPLIER",
      "outputs": [
        {
          "internalType": "uint256",
          "name": "",
          "type": "uint256"
        }
      ],
      "stateMutability": "view",
      "type": "function"
    },
    {
      "inputs": [],
      "name": "PRECISION",
      "outputs": [
        {
          "internalType": "uint256",
          "name": "",
          "type": "uint256"
        }
      ],
      "stateMutability": "view",
      "type": "function"
    },
    {
      "inputs": [],
      "name": "acceptGovernor",
      "outputs": [],
      "stateMutability": "nonpayable",
      "type": "function"
    },
    {
      "inputs": [
        {
          "internalType": "address",
          "name": "_vault",
          "type": "address"
        },
        {
          "internalType": "uint256",
          "name": "_requiredEarn",
          "type": "uint256"
        }
      ],
      "name": "addVault",
      "outputs": [],
      "stateMutability": "nonpayable",
      "type": "function"
    },
    {
      "inputs": [
        {
          "internalType": "address[]",
          "name": "_vaults",
          "type": "address[]"
        },
        {
          "internalType": "uint256[]",
          "name": "_requiredEarns",
          "type": "uint256[]"
        }
      ],
      "name": "addVaults",
      "outputs": [],
      "stateMutability": "nonpayable",
      "type": "function"
    },
    {
      "inputs": [],
      "name": "age",
      "outputs": [
        {
          "internalType": "uint256",
          "name": "",
          "type": "uint256"
        }
      ],
      "stateMutability": "view",
      "type": "function"
    },
    {
      "inputs": [],
      "name": "bond",
      "outputs": [
        {
          "internalType": "address",
          "name": "",
          "type": "address"
        }
      ],
      "stateMutability": "view",
      "type": "function"
    },
    {
      "inputs": [
        {
          "internalType": "address",
          "name": "_vault",
          "type": "address"
        }
      ],
      "name": "calculateEarn",
      "outputs": [
        {
          "internalType": "uint256",
          "name": "_amount",
          "type": "uint256"
        }
      ],
      "stateMutability": "view",
      "type": "function"
    },
    {
      "inputs": [],
      "name": "earnCooldown",
      "outputs": [
        {
          "internalType": "uint256",
          "name": "",
          "type": "uint256"
        }
      ],
      "stateMutability": "view",
      "type": "function"
    },
    {
      "inputs": [],
      "name": "earned",
      "outputs": [
        {
          "internalType": "uint256",
          "name": "",
          "type": "uint256"
        }
      ],
      "stateMutability": "view",
      "type": "function"
    },
    {
      "inputs": [
        {
          "internalType": "address",
          "name": "_vault",
          "type": "address"
        }
      ],
      "name": "forceWork",
      "outputs": [],
      "stateMutability": "nonpayable",
      "type": "function"
    },
    {
      "inputs": [],
      "name": "governor",
      "outputs": [
        {
          "internalType": "address",
          "name": "",
          "type": "address"
        }
      ],
      "stateMutability": "view",
      "type": "function"
    },
    {
      "inputs": [
        {
          "internalType": "address",
          "name": "_account",
          "type": "address"
        }
      ],
      "name": "isGovernor",
      "outputs": [
        {
          "internalType": "bool",
          "name": "_isGovernor",
          "type": "bool"
        }
      ],
      "stateMutability": "view",
      "type": "function"
    },
    {
      "inputs": [
        {
          "internalType": "address",
          "name": "_mechanic",
          "type": "address"
        }
      ],
      "name": "isMechanic",
      "outputs": [
        {
          "internalType": "bool",
          "name": "_isMechanic",
          "type": "bool"
        }
      ],
      "stateMutability": "view",
      "type": "function"
    },
    {
      "inputs": [],
      "name": "keep3r",
      "outputs": [
        {
          "internalType": "address",
          "name": "_keep3r",
          "type": "address"
        }
      ],
      "stateMutability": "view",
      "type": "function"
    },
    {
      "inputs": [
        {
          "internalType": "address",
          "name": "",
          "type": "address"
        }
      ],
      "name": "lastEarnAt",
      "outputs": [
        {
          "internalType": "uint256",
          "name": "",
          "type": "uint256"
        }
      ],
      "stateMutability": "view",
      "type": "function"
    },
    {
      "inputs": [],
      "name": "maxGasPrice",
      "outputs": [
        {
          "internalType": "uint256",
          "name": "",
          "type": "uint256"
        }
      ],
      "stateMutability": "view",
      "type": "function"
    },
    {
      "inputs": [],
      "name": "mechanicsRegistry",
      "outputs": [
        {
          "internalType": "address",
          "name": "_mechanicRegistry",
          "type": "address"
        }
      ],
      "stateMutability": "view",
      "type": "function"
    },
    {
      "inputs": [],
      "name": "minBond",
      "outputs": [
        {
          "internalType": "uint256",
          "name": "",
          "type": "uint256"
        }
      ],
      "stateMutability": "view",
      "type": "function"
    },
    {
      "inputs": [],
      "name": "onlyEOA",
      "outputs": [
        {
          "internalType": "bool",
          "name": "",
          "type": "bool"
        }
      ],
      "stateMutability": "view",
      "type": "function"
    },
    {
      "inputs": [
        {
          "internalType": "bool",
          "name": "_paused",
          "type": "bool"
        }
      ],
      "name": "pause",
      "outputs": [],
      "stateMutability": "nonpayable",
      "type": "function"
    },
    {
      "inputs": [],
      "name": "paused",
      "outputs": [
        {
          "internalType": "bool",
          "name": "",
          "type": "bool"
        }
      ],
      "stateMutability": "view",
      "type": "function"
    },
    {
      "inputs": [],
      "name": "pendingGovernor",
      "outputs": [
        {
          "internalType": "address",
          "name": "",
          "type": "address"
        }
      ],
      "stateMutability": "view",
      "type": "function"
    },
    {
      "inputs": [
        {
          "internalType": "address",
          "name": "_vault",
          "type": "address"
        }
      ],
      "name": "removeVault",
      "outputs": [],
      "stateMutability": "nonpayable",
      "type": "function"
    },
    {
      "inputs": [
        {
          "internalType": "address",
          "name": "",
          "type": "address"
        }
      ],
      "name": "requiredEarn",
      "outputs": [
        {
          "internalType": "uint256",
          "name": "",
          "type": "uint256"
        }
      ],
      "stateMutability": "view",
      "type": "function"
    },
    {
      "inputs": [],
      "name": "rewardMultiplier",
      "outputs": [
        {
          "internalType": "uint256",
          "name": "",
          "type": "uint256"
        }
      ],
      "stateMutability": "view",
      "type": "function"
    },
    {
      "inputs": [
        {
          "internalType": "address",
          "name": "_to",
          "type": "address"
        },
        {
          "internalType": "address",
          "name": "_token",
          "type": "address"
        },
        {
          "internalType": "uint256",
          "name": "_amount",
          "type": "uint256"
        }
      ],
      "name": "sendDust",
      "outputs": [],
      "stateMutability": "nonpayable",
      "type": "function"
    },
    {
      "inputs": [
        {
          "internalType": "uint256",
          "name": "_earnCooldown",
          "type": "uint256"
        }
      ],
      "name": "setEarnCooldown",
      "outputs": [],
      "stateMutability": "nonpayable",
      "type": "function"
    },
    {
      "inputs": [
        {
          "internalType": "address",
          "name": "_keep3r",
          "type": "address"
        }
      ],
      "name": "setKeep3r",
      "outputs": [],
      "stateMutability": "nonpayable",
      "type": "function"
    },
    {
      "inputs": [
        {
          "internalType": "address",
          "name": "_bond",
          "type": "address"
        },
        {
          "internalType": "uint256",
          "name": "_minBond",
          "type": "uint256"
        },
        {
          "internalType": "uint256",
          "name": "_earned",
          "type": "uint256"
        },
        {
          "internalType": "uint256",
          "name": "_age",
          "type": "uint256"
        },
        {
          "internalType": "bool",
          "name": "_onlyEOA",
          "type": "bool"
        }
      ],
      "name": "setKeep3rRequirements",
      "outputs": [],
      "stateMutability": "nonpayable",
      "type": "function"
    },
    {
      "inputs": [
        {
          "internalType": "uint256",
          "name": "_maxGasPrice",
          "type": "uint256"
        }
      ],
      "name": "setMaxGasPrice",
      "outputs": [],
      "stateMutability": "nonpayable",
      "type": "function"
    },
    {
      "inputs": [
        {
          "internalType": "address",
          "name": "_mechanicsRegistry",
          "type": "address"
        }
      ],
      "name": "setMechanicsRegistry",
      "outputs": [],
      "stateMutability": "nonpayable",
      "type": "function"
    },
    {
      "inputs": [
        {
          "internalType": "address",
          "name": "_pendingGovernor",
          "type": "address"
        }
      ],
      "name": "setPendingGovernor",
      "outputs": [],
      "stateMutability": "nonpayable",
      "type": "function"
    },
    {
      "inputs": [
        {
          "internalType": "uint256",
          "name": "_rewardMultiplier",
          "type": "uint256"
        }
      ],
      "name": "setRewardMultiplier",
      "outputs": [],
      "stateMutability": "nonpayable",
      "type": "function"
    },
    {
      "inputs": [
        {
          "internalType": "address",
          "name": "_vault",
          "type": "address"
        },
        {
          "internalType": "uint256",
          "name": "_requiredEarn",
          "type": "uint256"
        }
      ],
      "name": "updateVault",
      "outputs": [],
      "stateMutability": "nonpayable",
      "type": "function"
    },
    {
      "inputs": [
        {
          "internalType": "address[]",
          "name": "_vaults",
          "type": "address[]"
        },
        {
          "internalType": "uint256[]",
          "name": "_requiredEarns",
          "type": "uint256[]"
        }
      ],
      "name": "updateVaults",
      "outputs": [],
      "stateMutability": "nonpayable",
      "type": "function"
    },
    {
      "inputs": [],
      "name": "vaults",
      "outputs": [
        {
          "internalType": "address[]",
          "name": "_vaults",
          "type": "address[]"
        }
      ],
      "stateMutability": "view",
      "type": "function"
    },
    {
      "inputs": [
        {
          "internalType": "address",
          "name": "_vault",
          "type": "address"
        }
      ],
      "name": "work",
      "outputs": [
        {
          "internalType": "uint256",
          "name": "_credits",
          "type": "uint256"
        }
      ],
      "stateMutability": "nonpayable",
      "type": "function"
    },
    {
      "inputs": [
        {
          "internalType": "address",
          "name": "_vault",
          "type": "address"
        }
      ],
      "name": "workForBond",
      "outputs": [
        {
          "internalType": "uint256",
          "name": "_credits",
          "type": "uint256"
        }
      ],
      "stateMutability": "nonpayable",
      "type": "function"
    },
    {
      "inputs": [
        {
          "internalType": "address",
          "name": "_vault",
          "type": "address"
        }
      ],
      "name": "workForTokens",
      "outputs": [
        {
          "internalType": "uint256",
          "name": "_credits",
          "type": "uint256"
        }
      ],
      "stateMutability": "nonpayable",
      "type": "function"
    },
    {
      "inputs": [
        {
          "internalType": "address",
          "name": "_vault",
          "type": "address"
        }
      ],
      "name": "workable",
      "outputs": [
        {
          "internalType": "bool",
          "name": "",
          "type": "bool"
        }
      ],
      "stateMutability": "nonpayable",
      "type": "function"
    }
  ],
  "bytecode": "0x60806040526103e8600102600c553480156200001a57600080fd5b5060405162004a4338038062004a4383398181016040526101208110156200004157600080fd5b8101908080519060200190929190805190602001909291908051906020019092919080519060200190929190805190602001909291908051906020019092919080519060200190929190805190602001909291908051906020019092919050505087898033600073ffffffffffffffffffffffffffffffffffffffff168173ffffffffffffffffffffffffffffffffffffffff1614156200012e576040517f08c379a000000000000000000000000000000000000000000000000000000000815260040180806020018281038252602e81526020018062004a15602e913960400191505060405180910390fd5b806000806101000a81548173ffffffffffffffffffffffffffffffffffffffff021916908373ffffffffffffffffffffffffffffffffffffffff160217905550506200018081620001da60201b60201c565b505062000193816200021e60201b60201c565b50620001a98787878787620002af60201b60201c565b620001ba826200039460201b60201c565b620001cb81620003f960201b60201c565b5050505050505050506200043a565b80600460016101000a81548173ffffffffffffffffffffffffffffffffffffffff021916908373ffffffffffffffffffffffffffffffffffffffff16021790555050565b80600560006101000a81548173ffffffffffffffffffffffffffffffffffffffff021916908373ffffffffffffffffffffffffffffffffffffffff1602179055507f0fec338132ef1fa68cd11242357e5e5e5af67dfd0c957b53ef411bca535817ef81604051808273ffffffffffffffffffffffffffffffffffffffff16815260200191505060405180910390a150565b84600660006101000a81548173ffffffffffffffffffffffffffffffffffffffff021916908373ffffffffffffffffffffffffffffffffffffffff16021790555083600781905550826008819055508160098190555080600a60006101000a81548160ff0219169083151502179055507ec65cfa7a4df705cbfccbeeabefaa0a7015a83bc2b7380c2aba930fa3d66d458585858585604051808673ffffffffffffffffffffffffffffffffffffffff16815260200185815260200184815260200183815260200182151581526020019550505050505060405180910390a15050505050565b60008111620003ef576040517f08c379a0000000000000000000000000000000000000000000000000000000008152600401808060200182810382526034815260200180620049e16034913960400191505060405180910390fd5b80600f8190555050565b80600b819055507f6b58e904da592e8cbf6969fb29df3469c5ee45b11f377cf9283dd31de72029d4816040518082815260200191505060405180910390a150565b614597806200044a6000396000f3fe608060405234801561001057600080fd5b50600436106102695760003560e01c80638220ef5b11610151578063dbbc4a57116100c3578063e58bb63911610087578063e58bb63914610c75578063e89352de14610c7f578063ef47da6d14610ced578063f235757f14610d31578063fa71dc1814610d75578063fb2a410a14610d9357610269565b8063dbbc4a5714610aa1578063dd7ba42014610ad5578063e3056a3414610b19578063e401d82f14610b4d578063e43581b814610c1b57610269565b8063cbd3188211610115578063cbd3188214610909578063cd9183b114610961578063ceb68c23146109b9578063d2fa635e146109fd578063d3a9e30814610a2b578063d6f1926214610a8357610269565b80638220ef5b146107e0578063831518b71461083f5780639f4713031461085d578063a734f06e146108b7578063aaf5eb68146108eb57610269565b80633afbd477116101ea578063634c7bb5116101ae578063634c7bb5146106945780636372df6a146106c8578063646f6eb41461071657806364c9ec6f1461073457806365834acc146107685780636f2c590a146107c257610269565b80633afbd477146105625780633de39c11146105ba5780634cc18e57146105d85780635c975abb1461061c5780636038f10c1461063c57610269565b8063255d23f211610231578063255d23f214610402578063262a9dff146104505780632db8c1291461046e578063310d0119146104dc57806336df7ea51461050a57610269565b806302329a291461026e5780630bd075a11461029e5780630c340a24146102cc5780631078f38814610300578063221b0bc814610334575b600080fd5b61029c6004803603602081101561028457600080fd5b81019080803515159060200190929190505050610db3565b005b6102ca600480360360208110156102b457600080fd5b8101908080359060200190929190505050610e3a565b005b6102d4610eeb565b604051808273ffffffffffffffffffffffffffffffffffffffff16815260200191505060405180910390f35b610308610f0f565b604051808273ffffffffffffffffffffffffffffffffffffffff16815260200191505060405180910390f35b6104006004803603604081101561034a57600080fd5b810190808035906020019064010000000081111561036757600080fd5b82018360208201111561037957600080fd5b8035906020019184602083028401116401000000008311171561039b57600080fd5b9091929391929390803590602001906401000000008111156103bc57600080fd5b8201836020820111156103ce57600080fd5b803590602001918460208302840111640100000000831117156103f057600080fd5b9091929391929390505050610f39565b005b61044e6004803603604081101561041857600080fd5b81019080803573ffffffffffffffffffffffffffffffffffffffff1690602001909291908035906020019092919050505061106b565b005b6104586110e7565b6040518082815260200191505060405180910390f35b6104da6004803603606081101561048457600080fd5b81019080803573ffffffffffffffffffffffffffffffffffffffff169060200190929190803573ffffffffffffffffffffffffffffffffffffffff169060200190929190803590602001909291905050506110ed565b005b610508600480360360208110156104f257600080fd5b8101908080359060200190929190505050611178565b005b61054c6004803603602081101561052057600080fd5b81019080803573ffffffffffffffffffffffffffffffffffffffff1690602001909291905050506111f2565b6040518082815260200191505060405180910390f35b6105a46004803603602081101561057857600080fd5b81019080803573ffffffffffffffffffffffffffffffffffffffff169060200190929190505050611204565b6040518082815260200191505060405180910390f35b6105c261139c565b6040518082815260200191505060405180910390f35b61061a600480360360208110156105ee57600080fd5b81019080803573ffffffffffffffffffffffffffffffffffffffff1690602001909291905050506113a2565b005b610624611429565b60405180821515815260200191505060405180910390f35b61067e6004803603602081101561065257600080fd5b81019080803573ffffffffffffffffffffffffffffffffffffffff16906020019092919050505061143c565b6040518082815260200191505060405180910390f35b61069c6115d4565b604051808273ffffffffffffffffffffffffffffffffffffffff16815260200191505060405180910390f35b610714600480360360408110156106de57600080fd5b81019080803573ffffffffffffffffffffffffffffffffffffffff169060200190929190803590602001909291905050506115fe565b005b61071e61167a565b6040518082815260200191505060405180910390f35b61073c611683565b604051808273ffffffffffffffffffffffffffffffffffffffff16815260200191505060405180910390f35b6107aa6004803603602081101561077e57600080fd5b81019080803573ffffffffffffffffffffffffffffffffffffffff1690602001909291905050506116a9565b60405180821515815260200191505060405180910390f35b6107ca611776565b6040518082815260200191505060405180910390f35b6107e861177c565b6040518080602001828103825283818151815260200191508051906020019060200280838360005b8381101561082b578082015181840152602081019050610810565b505050509050019250505060405180910390f35b61084761184f565b6040518082815260200191505060405180910390f35b61089f6004803603602081101561087357600080fd5b81019080803573ffffffffffffffffffffffffffffffffffffffff169060200190929190505050611855565b60405180821515815260200191505060405180910390f35b6108bf6118ea565b604051808273ffffffffffffffffffffffffffffffffffffffff16815260200191505060405180910390f35b6108f3611902565b6040518082815260200191505060405180910390f35b61094b6004803603602081101561091f57600080fd5b81019080803573ffffffffffffffffffffffffffffffffffffffff169060200190929190505050611908565b6040518082815260200191505060405180910390f35b6109a36004803603602081101561097757600080fd5b81019080803573ffffffffffffffffffffffffffffffffffffffff169060200190929190505050611920565b6040518082815260200191505060405180910390f35b6109fb600480360360208110156109cf57600080fd5b81019080803573ffffffffffffffffffffffffffffffffffffffff169060200190929190505050611a41565b005b610a2960048036036020811015610a1357600080fd5b8101908080359060200190929190505050611bf1565b005b610a6d60048036036020811015610a4157600080fd5b81019080803573ffffffffffffffffffffffffffffffffffffffff169060200190929190505050611c6b565b6040518082815260200191505060405180910390f35b610a8b611c83565b6040518082815260200191505060405180910390f35b610aa9611c89565b604051808273ffffffffffffffffffffffffffffffffffffffff16815260200191505060405180910390f35b610b1760048036036020811015610aeb57600080fd5b81019080803573ffffffffffffffffffffffffffffffffffffffff169060200190929190505050611ca1565b005b610b21611d68565b604051808273ffffffffffffffffffffffffffffffffffffffff16815260200191505060405180910390f35b610c1960048036036040811015610b6357600080fd5b8101908080359060200190640100000000811115610b8057600080fd5b820183602082011115610b9257600080fd5b80359060200191846020830284011164010000000083111715610bb457600080fd5b909192939192939080359060200190640100000000811115610bd557600080fd5b820183602082011115610be757600080fd5b80359060200191846020830284011164010000000083111715610c0957600080fd5b9091929391929390505050611d8e565b005b610c5d60048036036020811015610c3157600080fd5b81019080803573ffffffffffffffffffffffffffffffffffffffff169060200190929190505050611ec0565b60405180821515815260200191505060405180910390f35b610c7d611f19565b005b610ceb600480360360a0811015610c9557600080fd5b81019080803573ffffffffffffffffffffffffffffffffffffffff169060200190929190803590602001909291908035906020019092919080359060200190929190803515159060200190929190505050611fe6565b005b610d2f60048036036020811015610d0357600080fd5b81019080803573ffffffffffffffffffffffffffffffffffffffff169060200190929190505050612075565b005b610d7360048036036020811015610d4757600080fd5b81019080803573ffffffffffffffffffffffffffffffffffffffff1690602001909291905050506120fc565b005b610d7d612183565b6040518082815260200191505060405180910390f35b610d9b612189565b60405180821515815260200191505060405180910390f35b610dbc33611ec0565b610e2e576040517f08c379a00000000000000000000000000000000000000000000000000000000081526004018080602001828103825260188152602001807f676f7665726e61626c652f6f6e6c792d676f7665726e6f72000000000000000081525060200191505060405180910390fd5b610e378161219c565b50565b610e4333611ec0565b80610e535750610e52336116a9565b5b610ea8576040517f08c379a000000000000000000000000000000000000000000000000000000000815260040180806020018281038252603481526020018061425a6034913960400191505060405180910390fd5b610eb18161227b565b7f0c002b45a2a56ac47bbd9d9075735e7591415cfc0c3f50d947016a538e803817816040518082815260200191505060405180910390a150565b60008054906101000a900473ffffffffffffffffffffffffffffffffffffffff1681565b6000600460019054906101000a900473ffffffffffffffffffffffffffffffffffffffff16905090565b610f4233611ec0565b80610f525750610f51336116a9565b5b610fa7576040517f08c379a000000000000000000000000000000000000000000000000000000000815260040180806020018281038252603481526020018061425a6034913960400191505060405180910390fd5b818190508484905014611005576040517f08c379a00000000000000000000000000000000000000000000000000000000081526004018080602001828103825260448152602001806144646044913960600191505060405180910390fd5b60005b848490508110156110645761105785858381811061102257fe5b9050602002013573ffffffffffffffffffffffffffffffffffffffff1684848481811061104b57fe5b905060200201356122e3565b8080600101915050611008565b5050505050565b61107433611ec0565b806110845750611083336116a9565b5b6110d9576040517f08c379a000000000000000000000000000000000000000000000000000000000815260040180806020018281038252603481526020018061425a6034913960400191505060405180910390fd5b6110e382826122e3565b5050565b60095481565b6110f633611ec0565b611168576040517f08c379a00000000000000000000000000000000000000000000000000000000081526004018080602001828103825260188152602001807f676f7665726e61626c652f6f6e6c792d676f7665726e6f72000000000000000081525060200191505060405180910390fd5b6111738383836123de565b505050565b61118133611ec0565b806111915750611190336116a9565b5b6111e6576040517f08c379a000000000000000000000000000000000000000000000000000000000815260040180806020018281038252603481526020018061425a6034913960400191505060405180910390fd5b6111ef81612606565b50565b60006111fd82611204565b9050919050565b6000600460009054906101000a900460ff1615611289576040517f08c379a00000000000000000000000000000000000000000000000000000000081526004018080602001828103825260068152602001807f706175736564000000000000000000000000000000000000000000000000000081525060200191505060405180910390fd5b611291612669565b600b5473169e633a2d1e6c10dd91238ba11c4a708dfef37c73ffffffffffffffffffffffffffffffffffffffff166350d25bcd6040518163ffffffff1660e01b815260040160206040518083038186803b1580156112ee57600080fd5b505afa158015611302573d6000803e3d6000fd5b505050506040513d602081101561131857600080fd5b81019080805190602001909291905050501115611380576040517f08c379a00000000000000000000000000000000000000000000000000000000081526004018080602001828103825260358152602001806143fb6035913960400191505060405180910390fd5b61138b826000612b5c565b90506113973382612c58565b919050565b600b5481565b6113ab33611ec0565b61141d576040517f08c379a00000000000000000000000000000000000000000000000000000000081526004018080602001828103825260188152602001807f676f7665726e61626c652f6f6e6c792d676f7665726e6f72000000000000000081525060200191505060405180910390fd5b61142681612d07565b50565b600460009054906101000a900460ff1681565b6000600460009054906101000a900460ff16156114c1576040517f08c379a00000000000000000000000000000000000000000000000000000000081526004018080602001828103825260068152602001807f706175736564000000000000000000000000000000000000000000000000000081525060200191505060405180910390fd5b6114c9612669565b600b5473169e633a2d1e6c10dd91238ba11c4a708dfef37c73ffffffffffffffffffffffffffffffffffffffff166350d25bcd6040518163ffffffff1660e01b815260040160206040518083038186803b15801561152657600080fd5b505afa15801561153a573d6000803e3d6000fd5b505050506040513d602081101561155057600080fd5b810190808051906020019092919050505011156115b8576040517f08c379a00000000000000000000000000000000000000000000000000000000081526004018080602001828103825260358152602001806143fb6035913960400191505060405180910390fd5b6115c3826001612b5c565b90506115cf3382612d98565b919050565b6000600560009054906101000a900473ffffffffffffffffffffffffffffffffffffffff16905090565b61160733611ec0565b806116175750611616336116a9565b5b61166c576040517f08c379a000000000000000000000000000000000000000000000000000000000815260040180806020018281038252603481526020018061425a6034913960400191505060405180910390fd5b6116768282612e87565b5050565b6103e860010281565b600660009054906101000a900473ffffffffffffffffffffffffffffffffffffffff1681565b6000600460019054906101000a900473ffffffffffffffffffffffffffffffffffffffff1673ffffffffffffffffffffffffffffffffffffffff166365834acc836040518263ffffffff1660e01b8152600401808273ffffffffffffffffffffffffffffffffffffffff16815260200191505060206040518083038186803b15801561173457600080fd5b505afa158015611748573d6000803e3d6000fd5b505050506040513d602081101561175e57600080fd5b81019080805190602001909291905050509050919050565b600c5481565b60606117886010612f97565b67ffffffffffffffff8111801561179e57600080fd5b506040519080825280602002602001820160405280156117cd5781602001602082028036833780820191505090505b50905060005b6117dd6010612f97565b81101561184b576117f8816010612fac90919063ffffffff16565b82828151811061180457fe5b602002602001019073ffffffffffffffffffffffffffffffffffffffff16908173ffffffffffffffffffffffffffffffffffffffff168152505080806001019150506117d3565b5090565b60075481565b6000600460009054906101000a900460ff16156118da576040517f08c379a00000000000000000000000000000000000000000000000000000000081526004018080602001828103825260068152602001807f706175736564000000000000000000000000000000000000000000000000000081525060200191505060405180910390fd5b6118e382612fc6565b9050919050565b73eeeeeeeeeeeeeeeeeeeeeeeeeeeeeeeeeeeeeeee81565b6103e881565b600d6020528060005260406000206000915090505481565b600080600d60008473ffffffffffffffffffffffffffffffffffffffff1673ffffffffffffffffffffffffffffffffffffffff16815260200190815260200160002054116119b9576040517f08c379a000000000000000000000000000000000000000000000000000000000815260040180806020018281038252602e815260200180614198602e913960400191505060405180910390fd5b8173ffffffffffffffffffffffffffffffffffffffff166348a0d7546040518163ffffffff1660e01b815260040160206040518083038186803b1580156119ff57600080fd5b505afa158015611a13573d6000803e3d6000fd5b505050506040513d6020811015611a2957600080fd5b81019080805190602001909291905050509050919050565b611a4a33611ec0565b80611a5a5750611a59336116a9565b5b611aaf576040517f08c379a000000000000000000000000000000000000000000000000000000000815260040180806020018281038252603481526020018061425a6034913960400191505060405180910390fd5b6000600d60008373ffffffffffffffffffffffffffffffffffffffff1673ffffffffffffffffffffffffffffffffffffffff1681526020019081526020016000205411611b47576040517f08c379a000000000000000000000000000000000000000000000000000000000815260040180806020018281038252602c8152602001806141c6602c913960400191505060405180910390fd5b6000600d60008373ffffffffffffffffffffffffffffffffffffffff1673ffffffffffffffffffffffffffffffffffffffff16815260200190815260200160002081905550611ba081601061310f90919063ffffffff16565b507fe71f3a50e5ad81964f352c411f1d45e35438ecd1acecef59ac81d9fbbf6cbc0a81604051808273ffffffffffffffffffffffffffffffffffffffff16815260200191505060405180910390a150565b611bfa33611ec0565b80611c0a5750611c09336116a9565b5b611c5f576040517f08c379a000000000000000000000000000000000000000000000000000000000815260040180806020018281038252603481526020018061425a6034913960400191505060405180910390fd5b611c688161313f565b50565b600e6020528060005260406000206000915090505481565b60085481565b73169e633a2d1e6c10dd91238ba11c4a708dfef37c81565b611caa33611ec0565b80611cba5750611cb9336116a9565b5b611d0f576040517f08c379a000000000000000000000000000000000000000000000000000000000815260040180806020018281038252603481526020018061425a6034913960400191505060405180910390fd5b611d1881613180565b7fee8d688761ac1d0fda49e2ac999f0e46b3beaf16857a8e8905aeab2987dc8d3881604051808273ffffffffffffffffffffffffffffffffffffffff16815260200191505060405180910390a150565b600160009054906101000a900473ffffffffffffffffffffffffffffffffffffffff1681565b611d9733611ec0565b80611da75750611da6336116a9565b5b611dfc576040517f08c379a000000000000000000000000000000000000000000000000000000000815260040180806020018281038252603481526020018061425a6034913960400191505060405180910390fd5b818190508484905014611e5a576040517f08c379a000000000000000000000000000000000000000000000000000000000815260040180806020018281038252604181526020018061454a6041913960600191505060405180910390fd5b60005b84849050811015611eb957611eac858583818110611e7757fe5b9050602002013573ffffffffffffffffffffffffffffffffffffffff16848484818110611ea057fe5b90506020020135612e87565b8080600101915050611e5d565b5050505050565b60008060009054906101000a900473ffffffffffffffffffffffffffffffffffffffff1673ffffffffffffffffffffffffffffffffffffffff168273ffffffffffffffffffffffffffffffffffffffff16149050919050565b600160009054906101000a900473ffffffffffffffffffffffffffffffffffffffff1673ffffffffffffffffffffffffffffffffffffffff163373ffffffffffffffffffffffffffffffffffffffff1614611fdc576040517f08c379a00000000000000000000000000000000000000000000000000000000081526004018080602001828103825260208152602001807f676f7665726e61626c652f6f6e6c792d70656e64696e672d676f7665726e6f7281525060200191505060405180910390fd5b611fe4613227565b565b611fef33611ec0565b612061576040517f08c379a00000000000000000000000000000000000000000000000000000000081526004018080602001828103825260188152602001807f676f7665726e61626c652f6f6e6c792d676f7665726e6f72000000000000000081525060200191505060405180910390fd5b61206e85858585856132f9565b5050505050565b61207e33611ec0565b6120f0576040517f08c379a00000000000000000000000000000000000000000000000000000000081526004018080602001828103825260188152602001807f676f7665726e61626c652f6f6e6c792d676f7665726e6f72000000000000000081525060200191505060405180910390fd5b6120f9816133de565b50565b61210533611ec0565b612177576040517f08c379a00000000000000000000000000000000000000000000000000000000081526004018080602001828103825260188152602001807f676f7665726e61626c652f6f6e6c792d676f7665726e6f72000000000000000081525060200191505060405180910390fd5b61218081613422565b50565b600f5481565b600a60009054906101000a900460ff1681565b801515600460009054906101000a900460ff1615151415612225576040517f08c379a00000000000000000000000000000000000000000000000000000000081526004018080602001828103825260098152602001807f6e6f2d6368616e6765000000000000000000000000000000000000000000000081525060200191505060405180910390fd5b80600460006101000a81548160ff0219169083151502179055507f0e2fb031ee032dc02d8011dc50b816eb450cf856abd8261680dac74f72165bd28160405180821515815260200191505060405180910390a150565b6103e86001028111156122d9576040517f08c379a000000000000000000000000000000000000000000000000000000000815260040180806020018281038252603c8152602001806142b4603c913960400191505060405180910390fd5b80600c8190555050565b6000600d60008473ffffffffffffffffffffffffffffffffffffffff1673ffffffffffffffffffffffffffffffffffffffff168152602001908152602001600020541161237b576040517f08c379a00000000000000000000000000000000000000000000000000000000081526004018080602001828103825260348152602001806142266034913960400191505060405180910390fd5b6123858282613539565b7fad9653abebeba40871550f3fb2029e34219e7a3d0a0945b2f64efe8c9dc6da458282604051808373ffffffffffffffffffffffffffffffffffffffff1681526020018281526020019250505060405180910390a15050565b600073ffffffffffffffffffffffffffffffffffffffff168373ffffffffffffffffffffffffffffffffffffffff161415612464576040517f08c379a000000000000000000000000000000000000000000000000000000000815260040180806020018281038252602f815260200180614169602f913960400191505060405180910390fd5b6124788260026135da90919063ffffffff16565b156124ce576040517f08c379a000000000000000000000000000000000000000000000000000000000815260040180806020018281038252602e81526020018061434d602e913960400191505060405180910390fd5b73eeeeeeeeeeeeeeeeeeeeeeeeeeeeeeeeeeeeeeee73ffffffffffffffffffffffffffffffffffffffff168273ffffffffffffffffffffffffffffffffffffffff161415612562578273ffffffffffffffffffffffffffffffffffffffff166108fc829081150290604051600060405180830381858888f1935050505015801561255c573d6000803e3d6000fd5b5061258e565b61258d83828473ffffffffffffffffffffffffffffffffffffffff1661360a9092919063ffffffff16565b5b7f1e34c1aee8e83c2dcc14c21bb4bfeea7f46c0c998cb797ac7cc4d7a18f5c656b838383604051808473ffffffffffffffffffffffffffffffffffffffff1681526020018373ffffffffffffffffffffffffffffffffffffffff168152602001828152602001935050505060405180910390a1505050565b6000811161265f576040517f08c379a00000000000000000000000000000000000000000000000000000000081526004018080602001828103825260348152602001806141f26034913960400191505060405180910390fd5b80600f8190555050565b600a60009054906101000a900460ff1615612703573273ffffffffffffffffffffffffffffffffffffffff163373ffffffffffffffffffffffffffffffffffffffff1614612702576040517f08c379a00000000000000000000000000000000000000000000000000000000081526004018080602001828103825260228152602001806144fe6022913960400191505060405180910390fd5b5b600060075414801561271757506000600854145b801561272557506000600954145b1561284a57600560009054906101000a900473ffffffffffffffffffffffffffffffffffffffff1673ffffffffffffffffffffffffffffffffffffffff16636ba42aaa336040518263ffffffff1660e01b8152600401808273ffffffffffffffffffffffffffffffffffffffff168152602001915050602060405180830381600087803b1580156127b557600080fd5b505af11580156127c9573d6000803e3d6000fd5b505050506040513d60208110156127df57600080fd5b8101908080519060200190929190505050612845576040517f08c379a00000000000000000000000000000000000000000000000000000000081526004018080602001828103825260298152602001806144a86029913960400191505060405180910390fd5b612b5a565b600073ffffffffffffffffffffffffffffffffffffffff16600660009054906101000a900473ffffffffffffffffffffffffffffffffffffffff1673ffffffffffffffffffffffffffffffffffffffff1614156129df57600560009054906101000a900473ffffffffffffffffffffffffffffffffffffffff1673ffffffffffffffffffffffffffffffffffffffff16631ff5f3da336007546008546009546040518563ffffffff1660e01b8152600401808573ffffffffffffffffffffffffffffffffffffffff168152602001848152602001838152602001828152602001945050505050602060405180830381600087803b15801561294a57600080fd5b505af115801561295e573d6000803e3d6000fd5b505050506040513d602081101561297457600080fd5b81019080805190602001909291905050506129da576040517f08c379a000000000000000000000000000000000000000000000000000000000815260040180806020018281038252602c81526020018061437b602c913960400191505060405180910390fd5b612b59565b600560009054906101000a900473ffffffffffffffffffffffffffffffffffffffff1673ffffffffffffffffffffffffffffffffffffffff1663f9d46cf233600660009054906101000a900473ffffffffffffffffffffffffffffffffffffffff166007546008546009546040518663ffffffff1660e01b8152600401808673ffffffffffffffffffffffffffffffffffffffff1681526020018573ffffffffffffffffffffffffffffffffffffffff16815260200184815260200183815260200182815260200195505050505050602060405180830381600087803b158015612ac857600080fd5b505af1158015612adc573d6000803e3d6000fd5b505050506040513d6020811015612af257600080fd5b8101908080519060200190929190505050612b58576040517f08c379a00000000000000000000000000000000000000000000000000000000081526004018080602001828103825260338152602001806143a76033913960400191505060405180910390fd5b5b5b565b6000805a9050612b6b84612fc6565b612bc0576040517f08c379a00000000000000000000000000000000000000000000000000000000081526004018080602001828103825260218152602001806141486021913960400191505060405180910390fd5b612bc984613180565b612bd2816136ac565b91507f7c1a0f411a17a9888c10f6796bb1a765787a7ef3c95f281f8b1bc5f13975a93a84338486604051808573ffffffffffffffffffffffffffffffffffffffff1681526020018473ffffffffffffffffffffffffffffffffffffffff168152602001838152602001821515815260200194505050505060405180910390a15092915050565b600560009054906101000a900473ffffffffffffffffffffffffffffffffffffffff1673ffffffffffffffffffffffffffffffffffffffff16634b3fde2183836040518363ffffffff1660e01b8152600401808373ffffffffffffffffffffffffffffffffffffffff16815260200182815260200192505050600060405180830381600087803b158015612ceb57600080fd5b505af1158015612cff573d6000803e3d6000fd5b505050505050565b80600560006101000a81548173ffffffffffffffffffffffffffffffffffffffff021916908373ffffffffffffffffffffffffffffffffffffffff1602179055507f0fec338132ef1fa68cd11242357e5e5e5af67dfd0c957b53ef411bca535817ef81604051808273ffffffffffffffffffffffffffffffffffffffff16815260200191505060405180910390a150565b600560009054906101000a900473ffffffffffffffffffffffffffffffffffffffff1673ffffffffffffffffffffffffffffffffffffffff16638d9acd2e600560009054906101000a900473ffffffffffffffffffffffffffffffffffffffff1684846040518463ffffffff1660e01b8152600401808473ffffffffffffffffffffffffffffffffffffffff1681526020018373ffffffffffffffffffffffffffffffffffffffff1681526020018281526020019350505050600060405180830381600087803b158015612e6b57600080fd5b505af1158015612e7f573d6000803e3d6000fd5b505050505050565b6000600d60008473ffffffffffffffffffffffffffffffffffffffff1673ffffffffffffffffffffffffffffffffffffffff1681526020019081526020016000205414612f1f576040517f08c379a000000000000000000000000000000000000000000000000000000000815260040180806020018281038252602d8152602001806144d1602d913960400191505060405180910390fd5b612f298282613539565b612f3d8260106136e690919063ffffffff16565b507f56ef0a10aee7f094f2e81758ee977e1638d6197b6e92859b50cfc0ffebb30e948282604051808373ffffffffffffffffffffffffffffffffffffffff1681526020018281526020019250505060405180910390a15050565b6000612fa582600001613716565b9050919050565b6000612fbb8360000183613727565b60001c905092915050565b600080600d60008473ffffffffffffffffffffffffffffffffffffffff1673ffffffffffffffffffffffffffffffffffffffff168152602001908152602001600020541161305f576040517f08c379a00000000000000000000000000000000000000000000000000000000081526004018080602001828103825260288152602001806142f06028913960400191505060405180910390fd5b600d60008373ffffffffffffffffffffffffffffffffffffffff1673ffffffffffffffffffffffffffffffffffffffff168152602001908152602001600020546130a883611920565b101580156131085750613105600f54600e60008573ffffffffffffffffffffffffffffffffffffffff1673ffffffffffffffffffffffffffffffffffffffff168152602001908152602001600020546137aa90919063ffffffff16565b42115b9050919050565b6000613137836000018373ffffffffffffffffffffffffffffffffffffffff1660001b613832565b905092915050565b80600b819055507f6b58e904da592e8cbf6969fb29df3469c5ee45b11f377cf9283dd31de72029d4816040518082815260200191505060405180910390a150565b8073ffffffffffffffffffffffffffffffffffffffff1663d389800f6040518163ffffffff1660e01b8152600401600060405180830381600087803b1580156131c857600080fd5b505af11580156131dc573d6000803e3d6000fd5b5050505042600e60008373ffffffffffffffffffffffffffffffffffffffff1673ffffffffffffffffffffffffffffffffffffffff1681526020019081526020016000208190555050565b600160009054906101000a900473ffffffffffffffffffffffffffffffffffffffff166000806101000a81548173ffffffffffffffffffffffffffffffffffffffff021916908373ffffffffffffffffffffffffffffffffffffffff1602179055506000600160006101000a81548173ffffffffffffffffffffffffffffffffffffffff021916908373ffffffffffffffffffffffffffffffffffffffff1602179055507f7880f0fcc848e1f26e461654b100a69f8d0641e29aa29f6596c6afadbb36b5ea60405160405180910390a1565b84600660006101000a81548173ffffffffffffffffffffffffffffffffffffffff021916908373ffffffffffffffffffffffffffffffffffffffff16021790555083600781905550826008819055508160098190555080600a60006101000a81548160ff0219169083151502179055507ec65cfa7a4df705cbfccbeeabefaa0a7015a83bc2b7380c2aba930fa3d66d458585858585604051808673ffffffffffffffffffffffffffffffffffffffff16815260200185815260200184815260200183815260200182151581526020019550505050505060405180910390a15050505050565b80600460016101000a81548173ffffffffffffffffffffffffffffffffffffffff021916908373ffffffffffffffffffffffffffffffffffffffff16021790555050565b600073ffffffffffffffffffffffffffffffffffffffff168173ffffffffffffffffffffffffffffffffffffffff1614156134a8576040517f08c379a00000000000000000000000000000000000000000000000000000000081526004018080602001828103825260358152602001806143186035913960400191505060405180910390fd5b80600160006101000a81548173ffffffffffffffffffffffffffffffffffffffff021916908373ffffffffffffffffffffffffffffffffffffffff1602179055507f56bddfa0cee9697cebddf9acd7f23dc6583663b05e007b877056d05017994def81604051808273ffffffffffffffffffffffffffffffffffffffff16815260200191505060405180910390a150565b60008111613592576040517f08c379a00000000000000000000000000000000000000000000000000000000081526004018080602001828103825260348152602001806144306034913960400191505060405180910390fd5b80600d60008473ffffffffffffffffffffffffffffffffffffffff1673ffffffffffffffffffffffffffffffffffffffff168152602001908152602001600020819055505050565b6000613602836000018373ffffffffffffffffffffffffffffffffffffffff1660001b61391a565b905092915050565b6136a78363a9059cbb60e01b8484604051602401808373ffffffffffffffffffffffffffffffffffffffff16815260200182815260200192505050604051602081830303815290604052907bffffffffffffffffffffffffffffffffffffffffffffffffffffffff19166020820180517bffffffffffffffffffffffffffffffffffffffffffffffffffffffff838183161783525050505061393d565b505050565b60006136df6103e86136d1600c546136c386613a2c565b613b7590919063ffffffff16565b613bfb90919063ffffffff16565b9050919050565b600061370e836000018373ffffffffffffffffffffffffffffffffffffffff1660001b613c45565b905092915050565b600081600001805490509050919050565b600081836000018054905011613788576040517f08c379a00000000000000000000000000000000000000000000000000000000081526004018080602001828103825260228152602001806141266022913960400191505060405180910390fd5b82600001828154811061379757fe5b9060005260206000200154905092915050565b600080828401905083811015613828576040517f08c379a000000000000000000000000000000000000000000000000000000000815260040180806020018281038252601b8152602001807f536166654d6174683a206164646974696f6e206f766572666c6f77000000000081525060200191505060405180910390fd5b8091505092915050565b6000808360010160008481526020019081526020016000205490506000811461390e576000600182039050600060018660000180549050039050600086600001828154811061387d57fe5b906000526020600020015490508087600001848154811061389a57fe5b90600052602060002001819055506001830187600101600083815260200190815260200160002081905550866000018054806138d257fe5b60019003818190600052602060002001600090559055866001016000878152602001908152602001600020600090556001945050505050613914565b60009150505b92915050565b600080836001016000848152602001908152602001600020541415905092915050565b606061399f826040518060400160405280602081526020017f5361666545524332303a206c6f772d6c6576656c2063616c6c206661696c65648152508573ffffffffffffffffffffffffffffffffffffffff16613cb59092919063ffffffff16565b9050600081511115613a27578080602001905160208110156139c057600080fd5b8101908080519060200190929190505050613a26576040517f08c379a000000000000000000000000000000000000000000000000000000000815260040180806020018281038252602a815260200180614520602a913960400191505060405180910390fd5b5b505050565b6000600560009054906101000a900473ffffffffffffffffffffffffffffffffffffffff1673ffffffffffffffffffffffffffffffffffffffff166309aff02b6040518163ffffffff1660e01b815260040160206040518083038186803b158015613a9657600080fd5b505afa158015613aaa573d6000803e3d6000fd5b505050506040513d6020811015613ac057600080fd5b810190808051906020019092919050505073ffffffffffffffffffffffffffffffffffffffff1663525ea631613aff5a85613ccd90919063ffffffff16565b6040518263ffffffff1660e01b81526004018082815260200191505060206040518083038186803b158015613b3357600080fd5b505afa158015613b47573d6000803e3d6000fd5b505050506040513d6020811015613b5d57600080fd5b81019080805190602001909291905050509050919050565b600080831415613b885760009050613bf5565b6000828402905082848281613b9957fe5b0414613bf0576040517f08c379a00000000000000000000000000000000000000000000000000000000081526004018080602001828103825260218152602001806143da6021913960400191505060405180910390fd5b809150505b92915050565b6000613c3d83836040518060400160405280601a81526020017f536166654d6174683a206469766973696f6e206279207a65726f000000000000815250613d17565b905092915050565b6000613c51838361391a565b613caa578260000182908060018154018082558091505060019003906000526020600020016000909190919091505582600001805490508360010160008481526020019081526020016000208190555060019050613caf565b600090505b92915050565b6060613cc48484600085613ddd565b90509392505050565b6000613d0f83836040518060400160405280601e81526020017f536166654d6174683a207375627472616374696f6e206f766572666c6f770000815250613f86565b905092915050565b60008083118290613dc3576040517f08c379a00000000000000000000000000000000000000000000000000000000081526004018080602001828103825283818151815260200191508051906020019080838360005b83811015613d88578082015181840152602081019050613d6d565b50505050905090810190601f168015613db55780820380516001836020036101000a031916815260200191505b509250505060405180910390fd5b506000838581613dcf57fe5b049050809150509392505050565b606082471015613e38576040517f08c379a000000000000000000000000000000000000000000000000000000000815260040180806020018281038252602681526020018061428e6026913960400191505060405180910390fd5b613e4185614046565b613eb3576040517f08c379a000000000000000000000000000000000000000000000000000000000815260040180806020018281038252601d8152602001807f416464726573733a2063616c6c20746f206e6f6e2d636f6e747261637400000081525060200191505060405180910390fd5b600060608673ffffffffffffffffffffffffffffffffffffffff1685876040518082805190602001908083835b60208310613f035780518252602082019150602081019050602083039250613ee0565b6001836020036101000a03801982511681845116808217855250505050505090500191505060006040518083038185875af1925050503d8060008114613f65576040519150601f19603f3d011682016040523d82523d6000602084013e613f6a565b606091505b5091509150613f7a828286614059565b92505050949350505050565b6000838311158290614033576040517f08c379a00000000000000000000000000000000000000000000000000000000081526004018080602001828103825283818151815260200191508051906020019080838360005b83811015613ff8578082015181840152602081019050613fdd565b50505050905090810190601f1680156140255780820380516001836020036101000a031916815260200191505b509250505060405180910390fd5b5060008385039050809150509392505050565b600080823b905060008111915050919050565b606083156140695782905061411e565b60008351111561407c5782518084602001fd5b816040517f08c379a00000000000000000000000000000000000000000000000000000000081526004018080602001828103825283818151815260200191508051906020019080838360005b838110156140e35780820151818401526020810190506140c8565b50505050905090810190601f1680156141105780820380516001836020036101000a031916815260200191505b509250505060405180910390fd5b939250505056fe456e756d657261626c655365743a20696e646578206f7574206f6620626f756e64735661756c744b65657033724a6f623a3a6561726e3a6e6f742d776f726b61626c65636f6c6c65637461626c652d647573742f63616e742d73656e642d647573742d746f2d7a65726f2d616464726573735661756c744b65657033724a6f623a3a63616c63756c6174652d6561726e3a7661756c742d6e6f742d61646465645661756c744b65657033724a6f623a3a72656d6f76652d7661756c743a7661756c742d6e6f742d61646465645661756c744b65657033724a6f623a3a7365742d6561726e2d636f6f6c646f776e3a73686f756c642d6e6f742d62652d7a65726f5661756c744b65657033724a6f623a3a7570646174652d72657175697265642d6561726e3a7661756c742d6e6f742d61646465644d616368696e6572793a3a6f6e6c79476f7665726e6f724f724d656368616e69633a696e76616c69642d6d73672d73656e646572416464726573733a20696e73756666696369656e742062616c616e636520666f722063616c6c5661756c744b65657033724a6f623a3a7365742d7265776172642d6d756c7469706c6965723a6d756c7469706c6965722d657863656564732d6d61785661756c744b65657033724a6f623a3a776f726b61626c653a7661756c742d6e6f742d6164646564676f7665726e61626c652f70656e64696e672d676f7665726e6f722d73686f756c642d6e6f742d62652d7a65726f2d616464726573636f6c6c65637461626c652d647573742f746f6b656e2d69732d706172742d6f662d7468652d70726f746f636f6c6b65657033723a3a69734b65657065723a6b65657065722d6e6f742d6d696e2d726571756972656d656e74736b65657033723a3a69734b65657065723a6b65657065722d6e6f742d637573746f6d2d6d696e2d726571756972656d656e7473536166654d6174683a206d756c7469706c69636174696f6e206f766572666c6f7747617350726963654c696d697465643a3a6c696d69742d6761732d70726963653a6761732d70726963652d6578636565642d6d61785661756c744b65657033724a6f623a3a7365742d72657175697265642d6561726e3a73686f756c642d6e6f742d62652d7a65726f5661756c744b65657033724a6f623a3a7570646174652d7661756c74733a7661756c74732d72657175697265642d6561726e732d646966666572656e742d6c656e6774686b65657033723a3a69734b65657065723a6b65657065722d69732d6e6f742d726567697374657265645661756c744b65657033724a6f623a3a6164642d7661756c743a7661756c742d616c72656164792d61646465646b65657033723a3a69734b65657065723a6b65657065722d69732d6e6f742d656f615361666545524332303a204552433230206f7065726174696f6e20646964206e6f7420737563636565645661756c744b65657033724a6f623a3a6164642d7661756c74733a7661756c74732d72657175697265642d6561726e732d646966666572656e742d6c656e677468a164736f6c634300060c000a5661756c744b65657033724a6f623a3a7365742d6561726e2d636f6f6c646f776e3a73686f756c642d6e6f742d62652d7a65726f676f7665726e61626c652f676f7665726e6f722d73686f756c642d6e6f742d62652d7a65726f2d61646472657373",
  "linkReferences": {},
  "deployedLinkReferences": {}
}